:100000000C9434000C948E000C9451000C9451000C
:100010000C9451000C9451000C9451000C9451001C
:100020000C9451000C9451000C9451000C9451000C
:100030000C9451000C9451000C9461000C945100EC
:100040000C9451000C9451000C9451000C945100EC
:100050000C9451000C9451000C9451000C945100DC
:100060000C9451000C94510011241FBECFEFD8E026
:10007000DEBFCDBF11E0A0E0B1E0E6E4F7E002C0F2
:1000800005900D92AA32B107D9F721E0AAE2B1E0BA
:1000900001C01D92AF33B207E1F70E9460010C94DA
:1000A000A1030C94000084B5826084BD85B5836093
:1000B00085BD89EF87BDEEE6F0E0808182608083B8
:1000C00008951F921FB61F9211248F939F93AF9391
:1000D000BF9380913A0190913B01A0913C01B09176
:1000E0003D010196A11DB11D80933A0190933B0102
:1000F000A0933C01B0933D01BF91AF919F918F912F
:100100001F901FBE1F90189560913A0170913B019E
:1001100080913C0190913D01089508950F920FB692
:100120000F921F9211245F936F937F938F939F93EE
:10013000AF93BF93EF93FF9399B189B192FD0CC038
:1001400083FF26C080913E0190E0019665E070E05B
:100150000E94140380933E018BB18F718BB9E091A3
:100160003E018BB1F0E0EE0FFF1FE35FFE4F908189
:10017000892B8BB9FF91EF91BF91AF919F918F9197
:100180007F916F915F911F900F900FBE0F90189508
:1001900080913E01811521F080913E018150DACF9E
:1001A00084E0D8CF8295880F880F807C80937C0074
:1001B00080917C008F7D80937C008FEF860F962F3F
:1001C0009827891748F4862F90E00E944A039EEFF3
:1001D000980F8150963008F087E080937A008091E4
:1001E0007A00806880937A000895ECE7F0E09081CF
:1001F000987F8770982B9083EAE780818064808362
:10020000089580917A00002486FF0394802D08953C
:100210008091780020917900922F08950E94F50036
:100220000E9401018115E1F30C9408019B01AC01CE
:1002300060E472E48FE090E00E94280321503109CD
:100240003093C5002093C40088E18093C10086E00C
:100250008093C20008959091C00095FFFCCF8093D9
:10026000C60008958091C00087FFFCCF8091C60032
:100270000895CF93DF93EC018881811103C0DF9152
:10028000CF91089521960E942B01F6CFCF93DF9353
:1002900000D000D000D0CDB7DEB74AE0BE016F5F1E
:1002A0007F4F0E946C03CE0101960E9439010F908E
:1002B0000F900F900F900F900F90DF91CF910895B6
:1002C000CDB7DEB762970FB6F894DEBF0FBECDBFD5
:1002D0000E9453008AB1837E8AB98BB18C618BB93D
:1002E00080916900826080936900809169008E7FAF
:1002F00080936900E89A789460E881E00E94D200D7
:1003000060E875E280E090E00E94160184B18C63A1
:1003100084B985B18C6385B9579A569A559A549881
:100320005C9A80913A0190913B01A0913C01B0917F
:100330003D0180913A0190913B01A0913C01B09127
:100340003D0180913A0190913B01A0913C01B09117
:100350003D0180913A0190913B01A0913C01B09107
:100360003D01312C02E0212C1A8A11E01D861E86E7
:100370001F86188A19861A861B861C862101310160
:100380001D821E821F821886610171012CE3298B58
:1003900080E00E940E0120913A0130913B01409192
:1003A0003C0150913D0129833A834B835C83490191
:1003B0005A018C189D08AE08BF089C01AFEFB0E051
:1003C0000E9405032FEF33E040E050E00E94280335
:1003D000C901DA0186509F4FAF4FBF4F881699066B
:1003E000AA06BB0608F4F8C085B13989832785B908
:1003F000E0913E01E150FF0BEE0FFF1FEF5FFE4F5C
:1004000080810130B8F490913E0191110AC025B16C
:10041000932F9095922395B94989482B498B02E0F7
:1004200029C0982F909549894923498B85B1892303
:1004300085B920C009F0CCC090913E019111BDC09A
:1004400095B189898095892385B9832D90E0FC0138
:10045000EE0FFF1FEF5FFE4F4081242F209559893B
:10046000252335B1322B35B9242B298B8395282FA1
:100470002370322E5A89513009F0B7C0E898C090E5
:100480003A01D0903B01E0903C01F0903D01C60163
:10049000D70184199509A609B70984369105A105E4
:1004A000B10508F09EC06201730189B180903A01E4
:1004B00090903B01A0903C01B0903D0184FD1EC096
:1004C000C401D5012D813E814F815885821B930B3C
:1004D000A40BB50B803D9740A105B10578F087E1ED
:1004E00091E00E9439014A8951E045274A8B89B140
:1004F000807E282E8D829E82AF82B886A3B0A1FA1C
:10050000AA24A1F8B3B0B0FABB24B0F8113019F5A1
:10051000A11021C040903A0150903B0160903C01F5
:1005200070903D01C201D3012D853E854F855889CC
:10053000821B930BA40BB50B883E9340A105B1051C
:1005400050F080E291E00E943901039501704D86E0
:100550005E866F86788A80912D01813011F5B11009
:1005600020C040903A0150903B0160903C01709057
:100570003D01C201D30129853A854B855C85821BEB
:10058000930BA40BB50B883E9340A105B10548F031
:1005900086E291E00E94390149865A866B867C8604
:1005A00002E0A1FA112710F9B0922D0126013701BE
:1005B000C980DA80EB80FC80EBCE282F209539892A
:1005C0003223398B95B1922395B995B1892B30CFD0
:1005D000023009F421CF4ECFC982DA82EB82FC824D
:1005E00049CF8BB182258BB960CFE89A8BB18F71DF
:1005F0008BB9E0913E018BB1F0E0EE0FFF1FE35F9E
:10060000FE4F9081892B8BB94ECFA29FB001B39F33
:10061000C001A39F700D811D1124911DB29F700D0B
:10062000811D1124911D089597FB072E16F4009447
:1006300007D077FD09D00E94580307FC05D03EF48F
:10064000909581959F4F0895709561957F4F08957E
:10065000A1E21A2EAA1BBB1BFD010DC0AA1FBB1FC6
:10066000EE1FFF1FA217B307E407F50720F0A21B38
:10067000B30BE40BF50B661F771F881F991F1A94A5
:1006800069F760957095809590959B01AC01BD01CF
:10069000CF010895AA2781110C945203A8E0892B59
:1006A000D9F70895A3958695E8F78A2F9927089595
:1006B000AA1BBB1B51E107C0AA1FBB1FA617B70788
:1006C00010F0A61BB70B881F991F5A95A9F78095A4
:1006D0009095BC01CD010895BB274A3031F4992390
:1006E00022F4BDE2909581959F4F0C947803BB272F
:1006F000FB015527AA27880F991FAA1FA41710F0DE
:10070000A41B83955051B9F7A05DAA3308F0A95DE9
:10071000A193009779F7B111B1931192CB010C9489
:100720009103DC01FC01672F71917723E1F7329788
:1007300004C07C916D9370836291AE17BF07C8F3BC
:060740000895F894FFCFBC
:10074600012000100008000400FA000000000080EC
:100756000040002000E0007377207374617274001B
:0A076600477265656E00526564007D
:00000001FF
