:100000000C9434000C948E000C9451000C9451000C
:100010000C9451000C9451000C9451000C9451001C
:100020000C9451000C9451000C9451000C9451000C
:100030000C9451000C9451000C9461000C945100EC
:100040000C9451000C9451000C9451000C945100EC
:100050000C9451000C9451000C9451000C945100DC
:100060000C9451000C94510011241FBECFEFD8E026
:10007000DEBFCDBF11E0A0E0B1E0E4EDF5E002C0ED
:1000800005900D92A831B107D9F721E0A8E1B1E0C0
:1000900001C01D92AD31B207E1F70E945C010C94E2
:1000A000E8020C94000084B5826084BD85B583604D
:1000B00085BD89EF87BDEEE6F0E0808182608083B8
:1000C00008951F921FB61F9211248F939F93AF9391
:1000D000BF938091180190911901A0911A01B091DC
:1000E0001B010196A11DB11D809318019093190168
:1000F000A0931A01B0931B01BF91AF919F918F9173
:100100001F901FBE1F9018956091180170911901E2
:1001100080911A0190911B01089508950F920FB6D6
:100120000F921F9211245F936F937F938F939F93EE
:10013000AF93BF93EF93FF934B9B26C080911C011D
:1001400090E0019665E070E00E945B0280931C01E4
:100150008BB18F718BB9E0911C018BB1F0E0EE0F88
:10016000FF1FEB5FFE4F9081892B8BB9FF91EF91C1
:10017000BF91AF919F918F917F916F915F911F90F0
:100180000F900FBE0F90189580911C01811521F0E2
:1001900080911C018150DACF84E0D8CF8295880FFE
:1001A000880F807C80937C0080917C008F7D809381
:1001B0007C008FEF860F962F9827891748F4862F9B
:1001C00090E00E9491029EEF980F8150963008F0C7
:1001D00087E080937A0080917A00806880937A002B
:1001E0000895ECE7F0E09081987F8770982B9083DA
:1001F000EAE7808180648083089580917A000024FA
:1002000086FF0394802D08958091780020917900D5
:10021000922F08950E94F1000E94FD008115E1F3E4
:100220000C9404019B01AC0160E472E48FE090E067
:100230000E946F02215031093093C5002093C40001
:1002400088E18093C10086E08093C2000895909178
:10025000C00095FFFCCF8093C60008958091C00038
:1002600087FFFCCF8091C6000895CF93DF93EC0108
:100270008881811103C0DF91CF91089521960E945A
:100280002701F6CFCF93DF9300D000D000D0CDB7B9
:10029000DEB74AE0BE016F5F7F4F0E94B302CE011E
:1002A00001960E9435010F900F900F900F900F90C4
:1002B0000F90DF91CF910895CDB7DEB72A970FB693
:1002C000F894DEBF0FBECDBF0E9453008AB1837F7A
:1002D0008AB98BB18C608BB9809169008260809300
:1002E0006900809169008E7F80936900E89A789414
:1002F00060E881E00E94CE0060E875E280E090E076
:100300000E941201239A249A259A229A2B9A2C9AB7
:100310002D9A2A9A579A569A559A54985C9A80918F
:10032000180190911901A0911A01B0911B018091BF
:10033000180190911901A0911A01B0911B018091AF
:10034000180190911901A0911A01B0911B01198611
:100350001A86E12CF12C670119821A821B821C82F9
:100360004601560100E214E080E00E940A0140903C
:1003700018015090190160901A0170901B019201B0
:10038000A301281939094A095B092D833E834F834C
:1003900058879C01AFEFB0E00E944C022FEF33E092
:1003A00040E050E00E946F02C901DA0186509F4F81
:1003B000AF4FBF4F2D813E814F8158852817390798
:1003C0004A075B0780F085B138E0832785B985B19E
:1003D00040E1842785B985B1802785B985B181271A
:1003E00085B9420153015A85513009F046C0409009
:1003F00018015090190160901A0170901B01C20100
:10040000D3018C199D09AE09BF0984369105A10558
:10041000B10570F52601370189B1C0901801D0905F
:100420001901E0901A01F0901B0184FD1EC0C60165
:10043000D70129813A814B815C81821B930BA40BEC
:10044000B50B803D9740A105B10578F08FE091E0B4
:100450000E9435014A8551E045274A8789B1807E4F
:100460008987C982DA82EB82FC82620173017CCFC8
:100470008BB1998589278BB9CFCF8BB18F718BB910
:10048000E0911C018BB1F0E0EE0FFF1FEB5FFE4F20
:100490009081892B8BB9BECFA29FB001B39FC001C1
:1004A000A39F700D811D1124911DB29F700D811DA0
:1004B0001124911D089597FB072E16F4009407D080
:1004C00077FD09D00E949F0207FC05D03EF490956D
:1004D00081959F4F0895709561957F4F0895A1E292
:1004E0001A2EAA1BBB1BFD010DC0AA1FBB1FEE1FAE
:1004F000FF1FA217B307E407F50720F0A21BB30BF9
:10050000E40BF50B661F771F881F991F1A9469F774
:1005100060957095809590959B01AC01BD01CF01D0
:100520000895AA2781110C949902A8E0892BD9F784
:100530000895A3958695E8F78A2F99270895AA1B11
:10054000BB1B51E107C0AA1FBB1FA617B70710F0BE
:10055000A61BB70B881F991F5A95A9F780959095F0
:10056000BC01CD010895BB274A3031F4992322F410
:10057000BDE2909581959F4F0C94BF02BB27FB0174
:100580005527AA27880F991FAA1FA41710F0A41B8C
:1005900083955051B9F7A05DAA3308F0A95DA193E6
:1005A000009779F7B111B1931192CB010C94D80255
:1005B000DC01FC01672F71917723E1F7329704C0CA
:1005C0007C916D9370836291AE17BF07C8F3089555
:0405D000F894FFCFCD
:1005D40001FA0000000000800040002000E00073E9
:0805E40077207374617274004A
:00000001FF
