:100000000C9434000C948E000C9451000C9451000C
:100010000C9451000C9451000C9451000C9451001C
:100020000C9451000C9451000C9451000C9451000C
:100030000C9451000C9451000C9461000C945100EC
:100040000C9451000C9451000C9451000C945100EC
:100050000C9451000C9451000C9451000C945100DC
:100060000C9451000C94510011241FBECFEFD8E026
:10007000DEBFCDBF11E0A0E0B1E0E0EDF4E002C0F2
:1000800005900D92A031B107D9F721E0A0E1B1E0D0
:1000900001C01D92A531B207E1F70E945C010C94EA
:1000A00066020C94000084B5826084BD85B58360CF
:1000B00085BD89EF87BDEEE6F0E0808182608083B8
:1000C00008951F921FB61F9211248F939F93AF9391
:1000D000BF938091100190911101A0911201B091F4
:1000E00013010196A11DB11D809310019093110180
:1000F000A0931201B0931301BF91AF919F918F9183
:100100001F901FBE1F9018956091100170911101F2
:100110008091120190911301089508950F920FB6E6
:100120000F921F9211245F936F937F938F939F93EE
:10013000AF93BF93EF93FF934B9B26C08091140125
:1001400090E0019665E070E00E94D901809314016F
:100150008BB18F718BB9E09114018BB1F0E0EE0F90
:10016000FF1FEB5FFE4F9081892B8BB9FF91EF91C1
:10017000BF91AF919F918F917F916F915F911F90F0
:100180000F900FBE0F90189580911401811521F0EA
:10019000809114018150DACF84E0D8CF8295880F06
:1001A000880F807C80937C0080917C008F7D809381
:1001B0007C008FEF860F962F9827891748F4862F9B
:1001C00090E00E940F029EEF980F8150963008F049
:1001D00087E080937A0080917A00806880937A002B
:1001E0000895ECE7F0E09081987F8770982B9083DA
:1001F000EAE7808180648083089580917A000024FA
:1002000086FF0394802D08958091780020917900D5
:10021000922F08950E94F1000E94FD008115E1F3E4
:100220000C9404019B01AC0160E472E48FE090E067
:100230000E94ED01215031093093C5002093C40084
:1002400088E18093C10086E08093C2000895909178
:10025000C00095FFFCCF8093C60008958091C00038
:1002600087FFFCCF8091C6000895CF93DF93EC0108
:100270008881811103C0DF91CF91089521960E945A
:100280002701F6CFCF93DF9300D000D000D0CDB7B9
:10029000DEB74AE0BE016F5F7F4F0E943102CE01A0
:1002A00001960E9435010F900F900F900F900F90C4
:1002B0000F90DF91CF9108950E9453008AB1837F00
:1002C0008AB98BB18C608BB9809169008260809310
:1002D0006900809169008E7F80936900E89A789424
:1002E00060E881E00E94CE0060E875E280E090E086
:1002F0000E941201239A249A259A229A2B9A2C9AC8
:100300002D9A2A9A579A569A559A8091100190914F
:100310001101A0911201B0911301E12CF12C6701A0
:10032000C8E0D0E104E010E280E00E940A01809081
:10033000100190901101A0901201B09013012401BE
:1003400035014C185D086E087F089C01AFEFB0E0E6
:100350000E94CA012FEF33E040E050E00E94ED011F
:10036000C901DA0186509F4FAF4FBF4F481659065B
:100370006A067B06C8F285B18C2785B985B18D27C1
:1003800085B985B1812785B985B1802785B9640193
:100390007501CACFA29FB001B39FC001A39F700D8A
:1003A000811D1124911DB29F700D811D1124911D7D
:1003B000089597FB072E16F4009407D077FD09D017
:1003C0000E941D0207FC05D03EF4909581959F4F39
:1003D0000895709561957F4F0895A1E21A2EAA1B8A
:1003E000BB1BFD010DC0AA1FBB1FEE1FFF1FA217E5
:1003F000B307E407F50720F0A21BB30BE40BF50BE2
:10040000661F771F881F991F1A9469F7609570956A
:10041000809590959B01AC01BD01CF010895AA275D
:1004200081110C941702A8E0892BD9F70895A395A0
:100430008695E8F78A2F99270895AA1BBB1B51E1DF
:1004400007C0AA1FBB1FA617B70710F0A61BB70B44
:10045000881F991F5A95A9F780959095BC01CD01E9
:100460000895BB274A3031F4992322F4BDE29095D8
:1004700081959F4F0C943D02BB27FB015527AA276E
:10048000880F991FAA1FA41710F0A41B8395505121
:10049000B9F7A05DAA3308F0A95DA193009779F799
:1004A000B111B1931192CB010C945602DC01FC0105
:1004B000672F71917723E1F7329704C07C916D9398
:1004C00070836291AE17BF07C8F30895F894FFCF09
:1004D00001FA0000000000800040002000E0000061
:00000001FF
