:100000000C9434000C9451000C9451000C94510049
:100010000C9451000C9451000C9451000C9451001C
:100020000C9451000C9451000C9451000C9451000C
:100030000C9451000C9451000C9461000C945100EC
:100040000C9451000C9451000C9451000C945100EC
:100050000C9451000C9451000C9451000C945100DC
:100060000C9451000C94510011241FBECFEFD8E026
:10007000DEBFCDBF11E0A0E0B1E0E8EDF3E002C0EB
:1000800005900D92A430B107D9F721E0A4E0B1E0CA
:1000900001C01D92A830B207E1F70E941C010C9428
:1000A000EA010C94000084B5826084BD85B583604C
:1000B00085BD89EF87BDEEE6F0E0808182608083B8
:1000C00008951F921FB61F9211248F939F93AF9391
:1000D000BF938091040190910501A0910601B09118
:1000E00007010196A11DB11D8093040190930501A4
:1000F000A0930601B0930701BF91AF919F918F919B
:100100001F901FBE1F90189560910401709105010A
:100110008091060190910701089508958295880FB6
:10012000880F807C80937C0080917C008F7D809301
:100130007C008FEF860F962F9827891748F4862F1B
:1001400090E00E94A7019EEF980F8150963008F032
:1001500087E080937A0080917A00806880937A00AB
:100160000895ECE7F0E09081987F8770982B90835A
:10017000EAE7808180648083089580917A0000247A
:1001800086FF0394802D0895809178002091790056
:10019000922F08950E94B1000E94BD008115E1F3E5
:1001A0000C94C4009B01AC0160E472E48FE090E029
:1001B0000E948501215031093093C5002093C4006D
:1001C00088E18093C10086E08093C20008959091F9
:1001D000C00095FFFCCF8093C60008958091C000B9
:1001E00087FFFCCF8091C6000895CF93DF93EC0189
:1001F0008881811103C0DF91CF91089521960E94DB
:10020000E700F6CFCF93DF9300D000D000D0CDB77A
:10021000DEB74AE0BE016F5F7F4F0E94B501CE019D
:1002200001960E94F5000F900F900F900F900F9085
:100230000F90DF91CF9108950E945300789460E869
:1002400081E00E948E0060E875E280E090E00E940C
:10025000D200239A249A259A229A8091040190919F
:100260000501A0910601B09107012B9A2C9A2D9AB5
:100270002A9AE12CF12C6701C8E0D0E104E010E2F9
:1002800080E00E94CA008090040190900501A09037
:100290000601B0900701240135014C185D086E0875
:1002A0007F089C01AFEFB0E00E9476012FEF33E0B2
:1002B00040E050E00E948501C901DA0186509F4F5D
:1002C000AF4FBF4F481659066A067B06C8F285B184
:1002D0008C2785B985B18D2785B985B1812785B9E9
:1002E00085B1802785B964017501CACFA29FB0018D
:1002F000B39FC001A39F700D811D1124911DB29F5A
:10030000700D811D1124911D0895A1E21A2EAA1BC2
:10031000BB1BFD010DC0AA1FBB1FEE1FFF1FA217B5
:10032000B307E407F50720F0A21BB30BE40BF50BB2
:10033000661F771F881F991F1A9469F7609570953B
:10034000809590959B01AC01BD01CF010895AA272E
:1003500081110C94AF01A8E0892BD9F70895A395DA
:100360008695E8F78A2F99270895BB274A3031F4FC
:10037000992322F4BDE2909581959F4F0C94C10181
:10038000BB27FB015527AA27880F991FAA1FA4176F
:1003900010F0A41B83955051B9F7A05DAA3308F063
:1003A000A95DA193009779F7B111B1931192CB0197
:1003B0000C94DA01DC01FC01672F71917723E1F7DE
:1003C000329704C07C916D9370836291AE17BF0722
:0803D000C8F30895F894FFCF73
:0403D800FA00000027
:00000001FF
