:100000000C9434000C9476020C9451000C94510022
:100010000C9451000C9451000C9451000C9451001C
:100020000C9451000C9451000C9451000C9451000C
:100030000C9451000C9451000C9482000C945100CB
:100040000C9451000C9451000C9410020C9451002B
:100050000C9451000C9451000C9451000C945100DC
:100060000C9451000C94510011241FBECFEFD8E026
:10007000DEBFCDBF11E0A0E0B1E0E4E4F6E002C0F5
:1000800005900D92A035B107D9F721E0A0E5B1E0C8
:1000900001C01D92A637B207E1F70E94A5000C949B
:1000A00020030C940000ECE7F0E09081987F8770CB
:1000B000982B9083EAE78081806480830895809103
:1000C0007A00002486FF0394802D089580917800A3
:1000D00020917900922F08950E9453000E945F00A2
:1000E0008115E1F30C94660084B5826084BD85B50A
:1000F000836085BD89EF87BDEEE6F0E08081826098
:10010000808308951F921FB61F9211248F939F938F
:10011000AF93BF9380915A0190915B01A0915C01D4
:10012000B0915D010196A11DB11D80935A0190937C
:100130005B01A0935C01B0935D01BF91AF919F9172
:100140008F911F901FBE1F90189500D0CDB7DEB7BE
:1001500060E875E280E090E00E94B5010E947400C2
:100160000E9466027894109259011092580184B14D
:100170008C6384B985B18C6385B92198209885B149
:10018000836085B954985C9A8AB1806E8AB98091EF
:100190005A0190915B01A0915C01B0915D01E12C4D
:1001A000F12C670180E00E946C0089839A8381E0D2
:1001B0000E946C0080905A0190905B01A0905C01BD
:1001C000B0905D01240135014C185D086E087F0870
:1001D00029813A81AFEFB0E00E94BE022FEF33E0F9
:1001E00040E050E00E94E102C901DA0186509F4FD1
:1001F000AF4FBF4F481659066A067B0640F0809104
:1002000056019CE389278093560164017501809112
:1002100056019091560190935501909156019093FB
:10022000540123B193B121FD07C021E02093500177
:10023000109259011092580190FD03C092E09093E2
:10024000500190915201913021F5909155019F7D7F
:100250009093550190915001913051F58F7E2091EE
:100260005801309159012130310579F590915101B2
:10027000923009F444C028F5911136C09091540190
:10028000937C90935401909153019F7190935301EB
:100290001CC090915201923021F4909155019062CE
:1002A000D7CF909156012091560125FB95F9D0CFDB
:1002B00090915001923099F6909156019071892B4E
:1002C000CECF933039F1943081F1209158013091A3
:1002D00059012230310599F595B1809155018C7302
:1002E000937C892B85B95ECF90915401937C906269
:1002F00090935401909153019F719068C7CF909152
:100300005401937C906190935401909153019F719B
:100310009064BCCF90915401937C98609093540169
:10032000909153019F719062B1CF90915401937C51
:1003300094609093540190915301906EA7CF2091B7
:1003400058013091590195B12130310541F6809124
:1003500054018C73937C892B85B99BB18091530197
:10036000807E9F71892B8BB91DCF9B01AC0160E40E
:1003700072E48FE090E00E94E10221503109309355
:10038000C5002093C40088E98093C10086E0809373
:10039000C20008959091C00095FFFCCF8093C600E5
:1003A0000895CF93DF93EC018881811103C0DF9121
:1003B000CF91089521960E94CA01F6CFCF93DF9383
:1003C000EC0180935E01D0935F0160E071E00E94D8
:1003D0001703892B49F481E0809352018CE091E06E
:1003E000DF91CF910C94D1016BE171E0CE010E94BD
:1003F0001703892B29F41092520186E291E0F0CF85
:1004000065E371E0CE010E941703892B31F482E08D
:100410008093520180E491E0E3CFDF91CF91089582
:100420001F920F920FB60F9211242F933F934F9369
:100430005F936F937F938F939F93AF93BF93EF934C
:10044000FF9382E090E0909359018093580180914E
:10045000C6008A3079F18D3069F190916001933155
:10046000E0F4E0916001F0E0EF59FE4F808380916D
:1004700060018F5F80936001FF91EF91BF91AF9119
:100480009F918F917F916F915F914F913F912F91AC
:100490000F900FBE0F901F9018951092750110923B
:1004A000600181E691E00E94D10181E691E00E9425
:1004B000DE01E2CFE0916001F0E0EF59FE4F1082E3
:1004C000EECF809175018093510108958AB1837EAA
:1004D0008AB98BB18C618BB9E9E6F0E080818260EA
:1004E000808380818E7F8083E89A08951F920F9287
:1004F0000FB60F9211242F933F934F935F936F93F7
:100500007F938F939F93AF93BF93EF93FF9381E07C
:1005100090E0909359018093580180915701811187
:1005200012C099B189B192FD0CC083FF1DC08091AA
:10053000750190E0019665E070E00E94CD02809325
:1005400075010E946102FF91EF91BF91AF919F9160
:100550008F917F916F915F914F913F912F910F906C
:100560000FBE0F901F90189580917501811521F095
:10057000809175018150E3CF84E0E1CFA29FB0016B
:10058000B39FC001A39F700D811D1124911DB29FC7
:10059000700D811D1124911D089597FB072E16F4EF
:1005A000009407D077FD09D00E94030307FC05D013
:1005B0003EF4909581959F4F0895709561957F4F7A
:1005C0000895A1E21A2EAA1BBB1BFD010DC0AA1F94
:1005D000BB1FEE1FFF1FA217B307E407F50720F0AC
:1005E000A21BB30BE40BF50B661F771F881F991F27
:1005F0001A9469F760957095809590959B01AC0170
:10060000BD01CF010895AA1BBB1B51E107C0AA1F62
:10061000BB1FA617B70710F0A61BB70B881F991FA3
:100620005A95A9F780959095BC01CD010895FB01DD
:10063000DC018D91019080190110D9F3990B089577
:04064000F894FFCF5C
:1006440064697361626C652072656400726564201C
:1006540069732064697361626C6500656E61626CC4
:1006640065207265640072656420697320656E613B
:10067400626C656400746F67676C65207265640002
:1006840072656420697320746F67676C6564000029
:00000001FF
