:100000000C9434000C9451000C9451000C94510049
:100010000C9451000C9451000C9451000C9451001C
:100020000C9451000C9451000C9451000C9451000C
:100030000C9451000C9451000C94A5000C945100A8
:100040000C9451000C9451000C9451000C945100EC
:100050000C9451000C9451000C9451000C945100DC
:100060000C9451000C94510011241FBECFEFD8E026
:10007000DEBFCDBF11E0A0E0B1E0E6E3F5E002C0F5
:1000800005900D92A030B107D9F721E0A0E0B1E0D2
:1000900001C01D92A430B207E1F70E941C010C942C
:1000A00099020C9400008295880F880F807C8093C1
:1000B0007C0080917C008F7D80937C008FEF860F89
:1000C000962F9827891748F4862F90E00E944202C5
:1000D0009EEF980F8150963008F087E080937A0069
:1000E00080917A00806880937A000895ECE7F0E0D0
:1000F0009081987F8770982B9083EAE78081806455
:100100008083089580917A00002486FF0394802DD7
:1001100008958091780020917900922F08950E948F
:1001200076000E9482008115E1F30C94890084B569
:10013000826084BD85B5836085BD89EF87BDEEE6AD
:10014000F0E080818260808308951F921FB61F9225
:1001500011248F939F93AF93BF938091000190914F
:100160000101A0910201B09103010196A11DB11DF1
:100170008093000190930101A0930201B0930301C9
:10018000BF91AF919F918F911F901FBE1F901895A7
:100190006091000170910101809102019091030131
:1001A000089508959B01AC0160E472E48FE090E053
:1001B0000E942002215031093093C5002093C400D1
:1001C00088E18093C10086E08093C20008959091F9
:1001D000C00095FFFCCF8093C60008958091C000B9
:1001E00087FFFCCF8091C6000895CF93DF93EC0189
:1001F0008881811103C0DF91CF91089521960E94DB
:10020000E700F6CFCF93DF9300D000D000D0CDB77A
:10021000DEB74AE0BE016F5F7F4F0E946402CE01ED
:1002200001960E94F5000F900F900F900F900F9085
:100230000F90DF91CF910895CDB7DEB7C35CD14069
:100240000FB6F894DEBF0FBECDBF0E949700789422
:1002500060E881E00E94530060E875E280E090E091
:100260000E94D200239A249A259A229A2B9A2C9A99
:100270002D9A2A9A579A569A559A529853988BB112
:100280008C608BB98091000190910101A0910201D5
:10029000B09103011E012FEF221A320A82EC91E085
:1002A000F1019C01119221503040E1F780E88B83ED
:1002B0001C8280E48D831E8280E28F83188680EE0C
:1002C00089871A86CD53DE4F1882C35CD14011E076
:1002D000E12CF12C670104E080E00E948F00809007
:1002E000000190900101A0900201B090030124014F
:1002F00035014C185D086E087F089C01AFEFB0E037
:100300000E94FD012FEF33E040E050E00E94200208
:10031000C901DA0186509F4FAF4FBF4F48165906AB
:100320006A067B0688F085B138E0832785B985B1F8
:1003300090E1892785B985B1E0E28E2785B985B13D
:10034000802785B96401750199B192FB882780F9EE
:10035000181731F189B1887092FD21C0811122C036
:10036000CD53DE4FF881C35CD140F1113AC024E097
:10037000CD53DE4F2883C35CD1409BB19F719BB9A5
:100380009BB1F101CD53DE4F2881C35CD140E20F18
:10039000F11DE20FF11D2081922B9BB901C081E07C
:1003A000182F9ACFCD53DE4F3881C35CD140832FB5
:1003B00090E0019661EE70E00E940C02CD53DE4F9A
:1003C0008883C35CD1402BB12F712BB92BB1880F1F
:1003D000991FF101E80FF91F8081282B2BB980E0CC
:1003E000DFCFCD53DE4F9881C35CD1409150CD53C8
:1003F000DE4F9883C35CD140C0CFA29FB001B39FB2
:10040000C001A39F700D811D1124911DB29F700D1D
:10041000811D1124911D089597FB072E16F4009459
:1004200007D077FD09D00E94500207FC05D03EF4AA
:10043000909581959F4F0895709561957F4F089590
:10044000A1E21A2EAA1BBB1BFD010DC0AA1FBB1FD8
:10045000EE1FFF1FA217B307E407F50720F0A21B4A
:10046000B30BE40BF50B661F771F881F991F1A94B7
:1004700069F760957095809590959B01AC01BD01E1
:10048000CF010895AA2781110C944A02A8E0892B74
:10049000D9F70895A3958695E8F78A2F99270895A7
:1004A000AA1BBB1B51E107C0AA1FBB1FA617B7079A
:1004B00010F0A61BB70B881F991F5A95A9F78095B6
:1004C0009095BC01CD010895BB274A3031F49923A2
:1004D00022F4BDE2909581959F4F0C947002BB274A
:1004E000FB015527AA27880F991FAA1FA41710F0F0
:1004F000A41B83955051B9F7A05DAA3308F0A95DFC
:10050000A193009779F7B111B1931192CB010C949B
:100510008902DC01FC01672F71917723E1F73297A3
:1005200004C07C916D9370836291AE17BF07C8F3CE
:060530000895F894FFCFCE
:00000001FF
