:100000000C9434000C9412010C9451000C94510087
:100010000C9451000C9451000C9451000C9451001C
:100020000C9451000C9451000C9451000C9451000C
:100030000C9451000C9451000C94EF000C9451005E
:100040000C9451000C9451000C9451000C945100EC
:100050000C9451000C9451000C9451000C945100DC
:100060000C9451000C94510011241FBECFEFD8E026
:10007000DEBFCDBF11E0A0E0B1E0EAE2F5E002C0F2
:1000800005900D92A031B107D9F721E0A0E1B1E0D0
:1000900001C01D92A931B207E1F70E9489010C94B9
:1000A00093020C9400008295880F880F807C8093C7
:1000B0007C0080917C008F7D80937C008FEF860F89
:1000C000962F9827891748F4862F90E00E943C02CB
:1000D0009EEF980F8150963008F087E080937A0069
:1000E00080917A00806880937A000895ECE7F0E0D0
:1000F0009081987F8770982B9083EAE78081806455
:100100008083089580917A00002486FF0394802DD7
:1001100008958091780020917900922F08950E948F
:1001200076000E9482008115E1F30C9489009B0106
:10013000AC0160E472E48FE090E00E941A0221506A
:1001400031093093C5002093C40088E18093C10039
:1001500086E08093C20008959091C00095FFFCCF87
:100160008093C60008958091C00087FFFCCF8091E6
:10017000C6000895CF93DF93EC018881811103C0FD
:10018000DF91CF91089521960E94AC00F6CFCF93D6
:10019000DF9300D000D000D0CDB7DEB74AE0BE017B
:1001A0006F5F7F4F0E945E02CE0101960E94BA00EF
:1001B0000F900F900F900F900F900F90DF91CF91B5
:1001C000089584B5826084BD85B5836085BD89EF5F
:1001D00087BDEEE6F0E080818260808308951F9203
:1001E0001FB61F9211248F939F93AF93BF9380915B
:1001F000150190911601A0911701B0911801019677
:10020000A11DB11D8093150190931601A0931701B4
:10021000B0931801BF91AF919F918F911F901FBE16
:100220001F9018951F920F920FB60F9211240F93E3
:100230001F932F933F934F935F936F937F938F936E
:100240009F93AF93BF93EF93FF938091150190918C
:100250001601A0911701B091180140911001509121
:10026000110160911201709113018C019D01041B19
:10027000150B260B370BA801B90144365105610552
:10028000710550F18093100190931101A093120118
:10029000B093130180E091E00E94BA0099B189B156
:1002A00092FD0CC083FF2BC08091140190E0019659
:1002B00065E070E00E940602809314018BB18F719B
:1002C0008BB9E09114018BB1F0E0EE0FFF1FEB5FF3
:1002D000FE4F9081892B8BB9FF91EF91BF91AF9128
:1002E0009F918F917F916F915F914F913F912F914E
:1002F0001F910F910F900FBE0F901F901895809136
:100300001401811521F0809114018150D5CF84E032
:10031000D3CF0E94E1008AB1837F8AB98BB18C6010
:100320008BB9809169008260809369008091690037
:100330008E7F80936900E89A789460E881E00E945B
:10034000530060E875E280E090E00E949700239AF5
:10035000249A259A229A2B9A2C9A2D9A2A9A579A5D
:10036000569A559A8091150190911601A091170106
:10037000B0911801E12CF12C6701C8E0D0E104E054
:1003800010E280E00E948F0080901501909016018D
:10039000A0901701B0901801240135014C185D0898
:1003A0006E087F089C01AFEFB0E00E94F7012FEFCD
:1003B00033E040E050E00E941A02C901DA018650A1
:1003C0009F4FAF4FBF4F481659066A067B06C8F2CB
:1003D00085B18C2785B985B18D2785B985B18127F0
:1003E00085B985B1802785B964017501CACFA29FFF
:1003F000B001B39FC001A39F700D811D1124911DF9
:10040000B29F700D811D1124911D089597FB072E39
:1004100016F4009407D077FD09D00E944A0207FC29
:1004200005D03EF4909581959F4F08957095619504
:100430007F4F0895A1E21A2EAA1BBB1BFD010DC020
:10044000AA1FBB1FEE1FFF1FA217B307E407F50784
:1004500020F0A21BB30BE40BF50B661F771F881F60
:10046000991F1A9469F760957095809590959B01F6
:10047000AC01BD01CF010895AA2781110C9444025B
:10048000A8E0892BD9F70895A3958695E8F78A2FD8
:1004900099270895AA1BBB1B51E107C0AA1FBB1FC8
:1004A000A617B70710F0A61BB70B881F991F5A9500
:1004B000A9F780959095BC01CD010895BB274A30DE
:1004C00031F4992322F4BDE2909581959F4F0C94CD
:1004D0006A02BB27FB015527AA27880F991FAA1F6D
:1004E000A41710F0A41B83955051B9F7A05DAA334F
:1004F00008F0A95DA193009779F7B111B19311921A
:10050000CB010C948302DC01FC01672F71917723EE
:10051000E1F7329704C07C916D9370836291AE17BE
:0A052000BF07C8F30895F894FFCF59
:10052A00696E742D000000800040002000E0000089
:00000001FF
