:100000000C9434000C9451000C9451000C94510049
:100010000C9451000C9451000C9451000C9451001C
:100020000C9451000C9451000C9451000C9451000C
:100030000C9451000C9451000C9461000C945100EC
:100040000C9451000C9451000C9451000C945100EC
:100050000C9451000C9451000C9451000C945100DC
:100060000C9451000C94510011241FBECFEFD8E026
:10007000DEBFCDBF11E0A0E0B1E0E8E8F1E002C0F2
:1000800005900D92A030B107D9F721E0A0E0B1E0D2
:1000900001C01D92A430B207E1F70E9484000C94C5
:1000A000C2000C94000084B5826084BD85B5836075
:1000B00085BD89EF87BDEEE6F0E0808182608083B8
:1000C00008951F921FB61F9211248F939F93AF9391
:1000D000BF938091000190910101A0910201B09124
:1000E00003010196A11DB11D8093000190930101B0
:1000F000A0930201B0930301BF91AF919F918F91A3
:100100001F901FBE1F9018950E9453007894239A49
:10011000249A259A229A8091000190910101A09140
:100120000201B09103012B9A2C9A2D9A2A9AA0E0F1
:10013000B0E0CD01E0E1F8E024E030E240910001E0
:100140005091010160910201709103016A017B01EC
:10015000C81AD90AEA0AFB0AC8EECC16C3E0DC06C4
:10016000E104F10458F385B18F2785B985B18E2755
:1001700085B985B1832785B985B1822785B9CA013B
:08018000DB01DCCFF894FFCF96
:00000001FF
