:100000000C9434000C9491040C9451000C94510005
:100010000C9451000C9451000C9451000C9451001C
:100020000C9451000C9451000C9451000C9451000C
:100030000C9451000C9451000C94A5000C945100A8
:100040000C9451000C9451000C9430040C94510009
:100050000C9451000C9451000C9451000C945100DC
:100060000C9451000C94510011241FBECFEFD8E026
:10007000DEBFCDBF11E0A0E0B1E0E0E4FBE002C0F4
:1000800005900D92AA3BB107D9F721E0AAEBB1E0A8
:1000900001C01D92AA3EB207E1F70E94C8000C946D
:1000A0009E050C9400008295880F880F807C8093B9
:1000B0007C0080917C008F7D80937C008FEF860F89
:1000C000962F9827891748F4862F90E00E941205F2
:1000D0009EEF980F8150963008F087E080937A0069
:1000E00080917A00806880937A000895ECE7F0E0D0
:1000F0009081987F8770982B9083EAE78081806455
:100100008083089580917A00002486FF0394802DD7
:1001100008958091780020917900922F08950E948F
:1001200076000E9482008115E1F30C94890084B569
:10013000826084BD85B5836085BD89EF87BDEEE6AD
:10014000F0E080818260808308951F921FB61F9225
:1001500011248F939F93AF93BF938091C901909186
:10016000CA01A091CB01B091CC010196A11DB11D96
:100170008093C9019093CA01A093CB01B093CC01A5
:10018000BF91AF919F918F911F901FBE1F901895A7
:10019000CDB7DEB764970FB6F894DEBF0FBECDBF04
:1001A00060E881E00E94530060E875E280E090E042
:1001B0000E94ED030E9497000E948104789484B10C
:1001C0008C6384B985B18C6385B98AB1806E8AB934
:1001D0008BB1806E8BB92198299A2098289A8091AA
:1001E000C9019091CA01A091CB01B091CC0183B11A
:1001F00082708C8B83B1182F117089B180718B8BB9
:100200001092BC011092BD011092BE011092BF016C
:10021000382E212E0C8919861A861B861C861D8273
:100220001E821F82188619821A821B821C82A12CB0
:10023000B12C450180E00E948F008D879E8781E070
:100240000E948F004090C9015090CA016090CB017C
:100250007090CC01C090BC01D090BD01E090BE0177
:10026000F090BF019201A301281939094A095B09DD
:100270002F87388B498B5A8B2D853E85AFEFB0E0A9
:100280000E94CD042FEF33E040E050E00E94F004E4
:100290008AEFC80ED11CE11CF11CC20ED31EE41E55
:1002A000F51E2F85388949895A892C153D054E053B
:1002B0005F0570F08091C5013CE383278093C50101
:1002C0008091C40140EE84278093C4014201530110
:1002D0008091C5018093C3018091C5018093C201C3
:1002E0008091C5018093C1018091C4018093C001B8
:1002F000F9B0F4FAFF24F4F85B895F1591F081E01E
:1003000090E09093C8018093C7012091C90130917A
:10031000CA014091CB015091CC0129833A834B8390
:100320005C833F1439F18091C9019091CA01A09179
:10033000CB01B091CC0129813A814B815C81821B38
:10034000930BA40BB50B4597A105B10598F0F110DF
:10035000A1C09091C60181E0911180E08093C60117
:1003600081E191E00E9409048091C60190E00E9421
:100370001604312CE3B0E1FAEE24E1F84C894E1575
:1003800061F08091C9019091CA01A091CB01B09117
:10039000CC018D839E83AF83B8870E1559F1809170
:1003A000C9019091CA01A091CB01B091CC012D81DE
:1003B0003E814F815885821B930BA40BB50B853171
:1003C0009105A105B105B0F0E1106EC0809100016A
:1003D000019681708093000186E491E00E940904F7
:1003E0008091000190E00E9416048EE591E00E9449
:1003F000090400E033B131703D87131761F080913B
:10040000C9019091CA01A091CB01B091CC0189871B
:100410009A87AB87BC879D85291621F18091C901F8
:100420009091CA01A091CB01B091CC0129853A8568
:100430004B855C85821B930BA40BB50B4597A105DF
:10044000B10580F03D852D8431110CC042E0409310
:1004500000018AE791E00E9409048EE591E00E9484
:100460000904212C0E941E038091C7019091C801AC
:100470008130910541F182309105B9F1892B89F5DF
:1004800095B18091C3018C73937C892B85B98BB115
:100490008F7126C08BE291E00E94090434E0309312
:1004A000000180E1382E66CF81E691E00E940904C8
:1004B0008091000190E00E9416048EE591E00E9478
:1004C000090402E097CF95B18091C1018C73937CB0
:1004D000892B85B99BB18091C001807E9F71892B4A
:1004E0008BB9FB8A1D85EC8AA5CE95B18091C2019E
:1004F000CACFFB01D9012D913D912130310551F039
:100500002230310559F0232B41F4809590818923C5
:10051000808308959081982B90830895982F9095CB
:1005200020819223DA012C918223F5CF8091E90179
:100530008230C1F040F481110BC08091C0018F71F5
:100540008093C00108958330A9F08430D9F00895D4
:100550008091C0018F7180688093C00180E8809392
:10056000CF0108958091C0018F7180648093C00194
:1005700080E4F5CF8091C0018F7180628093C001CB
:1005800080E2EDCF8091C001806E8093C00180EE4B
:10059000E6CF8091C601811559F09091C0018091FC
:1005A000C4012091CF0182239F71892B8093C001C8
:1005B00008958091C6018115C1F08091E9018230D2
:1005C000A9F040F481110BC08091C0018F7180931C
:1005D000C0010895833069F0843071F0089587E098
:1005E00091E08093CD019093CE01089585E091E054
:1005F000F8CF83E091E0F5CF81E091E0F2CF209158
:1006000000012430B9F020910001211559F020910A
:100610000001213081F020910001223029F482E094
:1006200090E002C080E090E0E091CD01F091CE0139
:1006300080839183089581E090E0F6CF8091C70197
:100640009091C8018130910551F1029709F051C094
:100650008FEF809300012FE031E045EC51E062EC38
:1006600071E080E20E9479022DE031E045EC51E03A
:1006700062EC71E080E10E9479022BE031E045EC10
:1006800051E062EC71E088E00E94790229E031E0FB
:1006900045EC51E062EC71E084E00C9479020E9438
:1006A00096020E94C9020E94D9020E94FF0227E01E
:1006B00031E045EC51E061EC71E080E20E947902AA
:1006C00025E031E045EC51E061EC71E080E10E9411
:1006D000790223E031E045EC51E061EC71E088E023
:1006E0000E94790221E031E045EC51E061EC71E0DB
:1006F000D3CF089568E771E00E9434058093D2015A
:100700009093D30168E771E080E090E00E943405A7
:100710008093D0019093D10108950F931F93CF93AD
:10072000DF930E947A030091D2011091D3016FE808
:1007300071E0C8010E943905892B11F167E971E068
:10074000C8010E943905892BF1F06EE971E0C801FA
:100750000E943905892BD1F00091D0011091D1016F
:1007600065EA71E0C8010E943905892B91F4D093A4
:100770001001C0930F01DF91CF911F910F91089548
:10078000C0E0D0E0E9CFC2E0D0E0E6CFC1E0D0E009
:10079000E3CF69EA71E0C8010E943905892B29F489
:1007A000D0930E01C0930D01E6CF6FEA71E0C8014E
:1007B0000E943905892B29F4D0930C01C0930B01B9
:1007C000DACF64EB71E0C8010E943905892B99F6F4
:1007D000D0930A01C0930901CECF9B01AC0160E424
:1007E00072E48FE090E00E94F004215031093093D0
:1007F000C5002093C40088E98093C10086E08093FF
:10080000C20008959091C00095FFFCCF8093C60070
:100810000895CF93DF93EC018881811103C0DF91AC
:10082000CF91089521960E940204F6CFCF93DF93D3
:1008300000D000D000D0CDB7DEB74AE0BE016F5F78
:100840007F4F0E946905CE0101960E9409040F9016
:100850000F900F900F900F900F90DF91CF91089510
:100860001F920F920FB60F9211242F933F934F9325
:100870005F936F937F938F939F93AF93BF93EF9308
:10088000FF9382E090E09093C8018093C70180912C
:10089000C6008A3079F18D3069F19091D40193319D
:1008A000E0F4E091D401F0E0EB52FE4F80838091C0
:1008B000D4018F5F8093D401FF91EF91BF91AF91ED
:1008C0009F918F917F916F915F914F913F912F9168
:1008D0000F900FBE0F901F9018951092E901109283
:1008E000D40185ED91E00E94090485ED91E00E941C
:1008F0008D03E2CFE091D401F0E0EB52FE4F108285
:10090000EECF8AB1837E8AB98BB18C618BB9E9E66F
:10091000F0E080818260808380818E7F8083E89A8E
:1009200008950F920FB60F921F9211245F936F9349
:100930007F938F939F93AF93BF9381E090E09093C9
:10094000C8018093C7018091C601811110C099B17F
:1009500089B192FD0CC083FF16C08091E90190E03F
:10096000019665E070E00E94DC048093E901BF918C
:10097000AF919F918F917F916F915F911F900F9099
:100980000FBE0F9018958091E901811521F080919B
:10099000E9018150EACF84E0E8CFA29FB001B39F84
:1009A000C001A39F700D811D1124911DB29F700D78
:1009B000811D1124911D089597FB072E16F40094B4
:1009C00007D077FD09D00E94200507FC05D03EF432
:1009D000909581959F4F0895709561957F4F0895EB
:1009E000A1E21A2EAA1BBB1BFD010DC0AA1FBB1F33
:1009F000EE1FFF1FA217B307E407F50720F0A21BA5
:100A0000B30BE40BF50B661F771F881F991F1A9411
:100A100069F760957095809590959B01AC01BD013B
:100A2000CF010895AA2781110C941A05A8E0892BFB
:100A3000D9F70895A3958695E8F78A2F9927089501
:100A4000AA1BBB1B51E107C0AA1FBB1FA617B707F4
:100A500010F0A61BB70B881F991F5A95A9F7809510
:100A60009095BC01CD0108954AEB51E00E944205EA
:100A70000895FB01DC018D91019080190110D9F3DB
:100A8000990B0895FA01A191B081009719F410977C
:100A9000E1F0CD01DC01CD010D90002011F4C00189
:100AA00013C0FB012191222319F02015D9F7F3CFB0
:100AB000FB012191201519F41E92119606C02223E4
:100AC000C1F70D900020A1F7D001FA01A193B083E6
:100AD0000895BB274A3031F4992322F4BDE2909562
:100AE00081959F4F0C947505BB27FB015527AA27BD
:100AF000880F991FAA1FA41710F0A41B83955051AB
:100B0000B9F7A05DAA3308F0A95DA193009779F722
:100B1000B111B1931192CB010C948E05DC01FC0153
:100B2000672F71917723E1F7329704C07C916D9321
:100B300070836291AE17BF07C8F30895F894FFCF92
:100B40000402000200020002000200020002000291
:100B500000726F746F7220737769746368206973B1
:100B600020707265737365643A2000726F746F72DF
:100B7000207377697463682069732072656C65619E
:100B80007365643A200062746E206F6E2F6F666624
:100B900020697320707265737365643A20000D0AD2
:100BA0000062746E206F6E2F6F666620697320720C
:100BB000656C65617365643A200062746E207265CD
:100BC0007365742069732070726573736564006463
:100BD000697361626C6500656E61626C6500746F5B
:100BE00067676C650072656400677265656E0062B8
:0A0BF0006C75650077686974650094
:00000001FF
