:100000000C9434000C9471030C9451000C94510026
:100010000C9451000C9451000C9451000C9451001C
:100020000C9451000C9451000C9451000C9451000C
:100030000C9451000C9451000C94A5000C945100A8
:100040000C9451000C9451000C9410030C9451002A
:100050000C9451000C9451000C9451000C945100DC
:100060000C9451000C94510011241FBECFEFD8E026
:10007000DEBFCDBF11E0A0E0B1E0E0E0F9E002C0FA
:1000800005900D92AE34B107D9F721E0AEE4B1E0AE
:1000900001C01D92AC37B207E1F70E94C8000C9472
:1000A0007E040C9400008295880F880F807C8093DA
:1000B0007C0080917C008F7D80937C008FEF860F89
:1000C000962F9827891748F4862F90E00E94F20314
:1000D0009EEF980F8150963008F087E080937A0069
:1000E00080917A00806880937A000895ECE7F0E0D0
:1000F0009081987F8770982B9083EAE78081806455
:100100008083089580917A00002486FF0394802DD7
:1001100008958091780020917900922F08950E948F
:1001200076000E9482008115E1F30C94890084B569
:10013000826084BD85B5836085BD89EF87BDEEE6AD
:10014000F0E080818260808308951F921FB61F9225
:1001500011248F939F93AF93BF9380915D019091F2
:100160005E01A0915F01B09160010196A11DB11DDA
:1001700080935D0190935E01A0935F01B093600155
:10018000BF91AF919F918F911F901FBE1F901895A7
:10019000CDB7DEB72C970FB6F894DEBF0FBECDBF3C
:1001A00060E881E00E94530060E875E280E090E042
:1001B0000E94CD020E9497000E946103789484B14E
:1001C0008C6384B985B18C6385B98AB1806E8AB934
:1001D0008BB1806E8BB980915D0190915E01A09191
:1001E0005F01B09160011092500110925101109284
:1001F00052011092530121E02B871C86E12CF12C37
:100200006701260136010CE310EE80E00E948F00AA
:100210008D839E8381E00E948F0080905D0190908D
:100220005E01A0905F01B0906001809150019091BB
:100230005101A0915201B091530189839A83AB83FC
:10024000BC839401A50124193509460957092F8358
:10025000388749875A872D813E81AFEFB0E00E94F1
:10026000AD032FEF33E040E050E00E94D0038981DE
:100270009A81AB81BC8186509F4FAF4FBF4F820F99
:10028000931FA41FB51F2F81388549855A852817CC
:1002900039074A075B0760F08091590180278093F6
:1002A000590180915801812780935801240135011B
:1002B0008091590180935701809159018093560193
:1002C0008091590180935501809158018093540188
:1002D0000E94380280915B0190915C018130910510
:1002E000A9F08230910509F45BC0892BE9F495B13E
:1002F000809157018C73937C892B85B98BB18F7159
:1003000012C030E13B87B32EBC867FCF95B1809180
:1003100055018C73937C892B85B98BB190915401D5
:100320008F71907E892B8BB9B9B0B4FABB24B4F825
:100330003C853B1571F041E050E050935C014093E7
:100340005B01C0905D01D0905E01E0905F01F09094
:1003500060015B855B15C1F280915D0190915E014A
:10036000A0915F01B09160018C199D09AE09BF0990
:100370004597A105B10540F2B110C3CF90915A0144
:1003800081E0911180E080935A0188E091E00E9421
:10039000E90280915A0190E00E94F6021B86B4CFD8
:1003A00095B180915601A6CFFB012081318121308A
:1003B000310561F02230310579F0232B61F4909101
:1003C0005601809589238093560108959091560196
:1003D000982B909356010895309156012091590120
:1003E000982F909593238223F3CF80917B018230C5
:1003F000C1F040F481110BC0809154018F71809342
:10040000540108958330A9F08430D9F00895809183
:1004100054018F7180688093540180E8809361015A
:100420000895809154018F7180648093540180E419
:10043000F5CF809154018F7180628093540180E2E6
:10044000EDCF80915401806E8093540180EEE6CF11
:1004500080915A01811559F0909154018091580171
:100460002091610182239F71892B8093540108950B
:1004700080915B0190915C0181309105B1F0029710
:10048000C1F466E071E080E20E94D40164E071E0B2
:1004900080E10E94D40162E071E088E00E94D40112
:1004A00060E071E084E00C94D4010E94F5010C94AA
:1004B0002802089560E271E00E94140480936401B0
:1004C0009093650160E271E080E090E00E94140486
:1004D000809362019093630108950F931F93CF93CC
:1004E000DF930E945A02009164011091650162E25B
:1004F00071E0C8010E941904892B11F16AE271E0D0
:10050000C8010E941904892BF1F061E371E0C80170
:100510000E941904892BD1F00091620110916301AE
:1005200068E371E0C8010E941904892B91F4D0930B
:100530000701C0930601DF91CF911F910F9108959C
:10054000C0E0D0E0E9CFC2E0D0E0E6CFC1E0D0E04B
:10055000E3CF6CE371E0C8010E941904892B29F4F0
:10056000D0930501C0930401E6CF62E471E0C801B5
:100570000E941904892B29F4D0930301C09302012E
:10058000DACF67E471E0C8010E941904892B99F65B
:10059000D0930101C0930001CECF9B01AC0160E478
:1005A00072E48FE090E00E94D00321503109309333
:1005B000C5002093C40088E98093C10086E0809341
:1005C000C20008959091C00095FFFCCF8093C600B3
:1005D0000895CF93DF93EC018881811103C0DF91EF
:1005E000CF91089521960E94E202F6CFCF93DF9338
:1005F00000D000D000D0CDB7DEB74AE0BE016F5FBB
:100600007F4F0E944904CE0101960E94E9020F909B
:100610000F900F900F900F900F90DF91CF91089552
:100620001F920F920FB60F9211242F933F934F9367
:100630005F936F937F938F939F93AF93BF93EF934A
:10064000FF9382E090E090935C0180935B01809146
:10065000C6008A3079F18D3069F19091660193314D
:10066000E0F4E0916601F0E0E959FE4F808380916B
:1006700066018F5F80936601FF91EF91BF91AF910B
:100680009F918F917F916F915F914F913F912F91AA
:100690000F900FBE0F901F90189510927B01109233
:1006A000660187E691E00E94E90287E691E00E94F8
:1006B0006D02E2CFE0916601F0E0E959FE4F108251
:1006C000EECF8AB1837E8AB98BB18C618BB9E9E6B2
:1006D000F0E080818260808380818E7F8083E89AD1
:1006E00008950F920FB60F921F9211245F936F938C
:1006F0007F938F939F93AF93BF9381E090E090930C
:100700005C0180935B0180915A01811110C099B105
:1007100089B192FD0CC083FF16C080917B0190E0EF
:10072000019665E070E00E94BC0380937B01BF915D
:10073000AF919F918F917F916F915F911F900F90DB
:100740000FBE0F90189580917B01811521F080914B
:100750007B018150EACF84E0E8CFA29FB001B39F34
:10076000C001A39F700D811D1124911DB29F700DBA
:10077000811D1124911D089597FB072E16F40094F6
:1007800007D077FD09D00E94000407FC05D03EF495
:10079000909581959F4F0895709561957F4F08952D
:1007A000A1E21A2EAA1BBB1BFD010DC0AA1FBB1F75
:1007B000EE1FFF1FA217B307E407F50720F0A21BE7
:1007C000B30BE40BF50B661F771F881F991F1A9454
:1007D00069F760957095809590959B01AC01BD017E
:1007E000CF010895AA2781110C94FA03A8E0892B60
:1007F000D9F70895A3958695E8F78A2F9927089544
:10080000AA1BBB1B51E107C0AA1FBB1FA617B70736
:1008100010F0A61BB70B881F991F5A95A9F7809552
:100820009095BC01CD0108954EE451E00E94220450
:100830000895FB01DC018D91019080190110D9F31D
:10084000990B0895FA01A191B081009719F41097BE
:10085000E1F0CD01DC01CD010D90002011F4C001CB
:1008600013C0FB012191222319F02015D9F7F3CFF2
:10087000FB012191201519F41E92119606C0222326
:10088000C1F70D900020A1F7D001FA01A193B08328
:100890000895BB274A3031F4992322F4BDE29095A4
:1008A00081959F4F0C945504BB27FB015527AA2720
:1008B000880F991FAA1FA41710F0A41B83955051ED
:1008C000B9F7A05DAA3308F0A95DA193009779F765
:1008D000B111B1931192CB010C946E04DC01FC01B7
:1008E000672F71917723E1F7329704C07C916D9364
:1008F00070836291AE17BF07C8F30895F894FFCFD5
:100900000200020002000200726F746F722073779F
:100910006974636820697320707265737365643AE3
:10092000200064697361626C6500656E61626C656C
:1009300000746F67676C6500726564006772656557
:0E0940006E00626C7565007768697465000072
:00000001FF
