:100000000C9434000C9460050C9451000C94510035
:100010000C9451000C9451000C9451000C9451001C
:100020000C9451000C9451000C9451000C9451000C
:100030000C9451000C9451000C94A5000C945100A8
:100040000C9451000C9451000C9457040C945100E2
:100050000C9451000C9451000C9451000C945100DC
:100060000C9451000C94510011241FBECFEFD8E026
:10007000DEBFCDBF11E0A0E0B1E0E6EFFCE002C0E2
:1000800005900D92AA38B107D9F721E0AAE8B1E0AE
:1000900001C01D92AB3DB207E1F70E94C8000C946D
:1000A00079060C9400008295880F880F807C8093DD
:1000B0007C0080917C008F7D80937C008FEF860F89
:1000C000962F9827891748F4862F90E00E94ED0517
:1000D0009EEF980F8150963008F087E080937A0069
:1000E00080917A00806880937A000895ECE7F0E0D0
:1000F0009081987F8770982B9083EAE78081806455
:100100008083089580917A00002486FF0394802DD7
:1001100008958091780020917900922F08950E948F
:1001200076000E9482008115E1F30C94890084B569
:10013000826084BD85B5836085BD89EF87BDEEE6AD
:10014000F0E080818260808308951F921FB61F9225
:1001500011248F939F93AF93BF938091B901909196
:10016000BA01A091BB01B091BC010196A11DB11DC6
:100170008093B9019093BA01A093BB01B093BC01E5
:10018000BF91AF919F918F911F901FBE1F901895A7
:10019000CDB7DEB766970FB6F894DEBF0FBECDBF02
:1001A00060E881E00E94530060E875E280E090E042
:1001B0000E9414040E9497000E945005789484B114
:1001C0008C6384B98AB1806E8AB9519A509A5498D6
:1001D0005C9A8091B9019091BA01A091BB01B09154
:1001E000BC0102E010E09801A801B80189EA91E0A1
:1001F0000E94C30221E030E0A901B90189EA91E03F
:100200000E94D1029801A801B8018BE991E00E94F7
:10021000C30221E030E0A901B9018BE991E00E941D
:10022000D1029801A801B8018DE891E00E94C302B3
:1002300021E030E0A901B9018DE891E00E94D102EE
:1002400089EA91E00E94D902612C712C2301DD24FE
:10025000D394212C21E02E8B312CCD2C1D8A198694
:100260001A861B861C861D821E821F821886198292
:100270001A821B821C8200E0710180E00E948F00C4
:100280008D879E8781E00E948F008F87988B80905A
:10029000B9019090BA01A090BB01B090BC01C4011B
:1002A000D5018E199F09A00BB10B898B9A8BAB8B53
:1002B000BC8B2D853E85AFEFB0E00E94A8052FEFE7
:1002C00033E040E050E00E94CB05C201D3018650EC
:1002D0009F4FAF4FBF4F820F931FA41FB51F298998
:1002E0003A894B895C89281739074A075B0708F464
:1002F0001AC18091B7019091B8018130910509F43C
:10030000F3C08230910509F4F2C0892B21F489EA07
:1003100091E00E94D90280918C01811509F4EAC014
:100320000E94A8048091D9018130D1F42F853889A9
:10033000AFEFB0E00E94A8052FEF33E040E050E0BF
:100340000E94CB0529013A010E9408038DE891E043
:100350000E94D9028091BD01019683708093BD01F6
:1003600019B110713D89311791F081E090E09093BF
:10037000B8018093B7018091B9019091BA01A09121
:10038000BB01B091BC0189839A83AB83BC83C11646
:1003900021F18091B9019091BA01A091BB01B09176
:1003A000BC0129813A814B815C81821B930BA40B98
:1003B000B50B4597A105B10580F080E1C82E11115C
:1003C0000CC090918C0181E0911180E080938C01B0
:1003D00081E091E00E943004C12C03B1027030161C
:1003E00061F08091B9019091BA01A091BB01B091E7
:1003F000BC018D839E83AF83B8879E89901779F166
:100400008091B9019091BA01A091BB01B091BC015A
:100410002D813E814F815885821B930BA40BB50B18
:1004200085319105A105B105D0F001117FC0809102
:100430008C01813099F48091000101968170809344
:1004400000018AE191E00E9430048091000190E077
:100450000E943D0482E391E00E9430041E8A43B171
:1004600041704D87241661F08091B9019091BA01D5
:10047000A091BB01B091BC0189879A87AB87BC87EB
:100480009D85D91639F18091B9019091BA01A09159
:10049000BB01B091BC0129853A854B855C85821BE7
:1004A000930BA40BB50B4597A105B10598F03D85BD
:1004B00031113FC080918C01813059F442E040936A
:1004C000000185E391E00E94300482E391E00E9404
:1004D0003004D12C809100010E945E032D84302EC7
:1004E0001D8B74018501C9CE8DE891E012CF8BE997
:1004F00091E00FCF1092D90101E010E09801A8011E
:10050000B8018DE891E00E94C30202E09801A801C1
:10051000B8018DE891E00E94C3020E94FA04412CC8
:10052000512C32011DCF470158011ACF32E03E8BCA
:1005300096CFDD84CFCF8130910549F0823091058F
:1005400059F0892B19F485B1862B85B9089585B1A9
:100550006095682365B9089585B18627F6CF813007
:10056000910549F08230910559F0892B19F48BB12E
:10057000862B8BB908958BB1609568236BB908956C
:100580008BB18627F6CF0F931F93FC016083718395
:100590004283538324833583068317831F910F91EE
:1005A0000895FC01608771874287538724873587C8
:1005B0000895CF93DF93EC0160E270E08881998128
:1005C0000E949B0268E070E08C819D810E949B02EA
:1005D00060E170E08A819B810E949B0264E070E090
:1005E0008E819F810E949B0260E870E088859985DA
:1005F0000E94AF0260E270E08C859D850E94AF0290
:1006000060E470E08A859B85DF91CF910C94AF0206
:10061000E091BD01F0E0EE0FFF1FEE57FE4F80812D
:10062000918180319105E9F030F48430910599F1A0
:10063000089711F10895809709F03FC010928E013C
:1006400010928D0181E090E09093900180938F0152
:1006500090939201809391019093940180939301E0
:10066000089581E090E090938E0180938D01109227
:10067000900110928F01ECCF81E090E090938E0179
:1006800080938D019093900180938F01109292013D
:1006900010929101E1CF81E090E090938E018093E0
:1006A0008D019093900180938F019093920180939C
:1006B000910110929401109293010895E091DA0152
:1006C000F0E0EE0FFF1FE858FE4F4081518183306C
:1006D00030F4E82FF0E0EB58FE4F208130E0403856
:1006E000510561F038F44032510591F04034510524
:1006F00051F00895403E510581F0089530938E01E8
:1007000020938D0108953093900120938F010895D7
:100710003093920120939101089530939401209396
:100720009301089560E371E00E940F068093C00179
:100730009093C10160E371E080E090E00E940F06B9
:100740008093BE019093BF010895CF93DF930E94E1
:100750009203C091C001D091C1016AE471E0CE0161
:100760000E941406892B31F481E08093C20110921B
:10077000C3010BC062E571E0CE010E941406892B13
:10078000D1F41092C2011092C301C091BE01D09168
:10079000BF0160E671E0CE010E941406892BA1F42E
:1007A0008091C2019091C30190939C0180939B0121
:1007B000DF91CF91089569E571E0CE010E941406A2
:1007C000892B19F782E0D1CF64E671E0CE010E9457
:1007D0001406892B49F48091C2019091C301909332
:1007E0009E0180939D01E4CF6AE671E0CE010E94F4
:1007F0001406892B49F48091C2019091C301909312
:10080000A00180939F01D4CF6FE671E0CE010E94DA
:100810001406892B69F68091C2019091C3019093CF
:10082000A2018093A101C4CF9B01AC0160E472E4FA
:100830008FE090E00E94CB05215031093093C50034
:100840002093C40088E98093C10086E08093C200B1
:1008500008959091C00095FFFCCF8093C600089545
:10086000CF93DF93EC018881811103C0DF91CF9199
:10087000089521960E942904F6CFCF93DF9300D0EC
:1008800000D000D0CDB7DEB74AE0BE016F5F7F4F2A
:100890000E944406CE0101960E9430040F900F90F2
:1008A0000F900F900F900F90DF91CF9108951F92AE
:1008B0000F920FB60F9211242F933F934F935F9394
:1008C0006F937F938F939F93AF93BF93EF93FF9318
:1008D00082E090E09093B8018093B7018091C600C8
:1008E0008A3079F18D3069F19091C4019331E0F44F
:1008F000E091C401F0E0EB53FE4F80838091C4018E
:100900008F5F8093C401FF91EF91BF91AF919F9151
:100910008F917F916F915F914F913F912F910F90A8
:100920000FBE0F901F9018951092D9011092C4011C
:1009300085EC91E00E94300485EC91E00E94A503D3
:10094000E2CFE091C401F0E0EB53FE4F1082EECF16
:100950001092D901E091DA01F0E0EE0FFF1FE858A4
:10096000FE4F808191818034910509F128F4009730
:1009700051F0809761F108958038910541F0803EF3
:10098000910589F1089581E08093D901089582E06D
:1009900090E0909396018093950181E090939A0165
:1009A000809399019093980180939701089582E034
:1009B00090E0909398018093970181E090939A0141
:1009C000809399019093960180939501089582E018
:1009D00090E090939A018093990181E0909398011F
:1009E00080939701EFCF82E090E090939A018093FB
:1009F0009901F4CFE091DA01F0E0EE0FFF1FE85823
:100A0000FE4F808191818034910539F128F400975F
:100A100051F0809789F108958038910579F0803EF2
:100A2000910589F1089581E090E090939A01809377
:100A30009901909398018093970119C010929601A3
:100A40001092950181E090E090939A018093990132
:100A500090939801809397010895109298011092B5
:100A6000970181E090E090939A018093990190938F
:100A7000960180939501089510929A011092990120
:100A800081E090E0D6CF10929A01109299011092D5
:100A90009801109297011092960110929501089575
:100AA0008AB1837E8AB98BB18C618BB9E9E6F0E0BB
:100AB00080818260808380818E7F8083E89A089520
:100AC0001F920F920FB60F9211242F933F934F93C3
:100AD0005F936F937F938F939F93AF93BF93EF93A6
:100AE000FF9381E090E09093B8018093B7018091EB
:100AF0008C01811112C099B189B192FD0CC083FFA4
:100B00001DC08091DA0190E0019665E070E00E94DE
:100B1000B7058093DA010E94FA04FF91EF91BF912B
:100B2000AF919F918F917F916F915F914F913F9185
:100B30002F910F900FBE0F901F9018958091DA01A2
:100B4000811521F08091DA018150E3CF84E0E1CF7B
:100B5000A29FB001B39FC001A39F700D811D1124FE
:100B6000911DB29F700D811D1124911D089597FB59
:100B7000072E16F4009407D077FD09D00E94FB05DC
:100B800007FC05D03EF4909581959F4F0895709590
:100B900061957F4F0895A1E21A2EAA1BBB1BFD0190
:100BA0000DC0AA1FBB1FEE1FFF1FA217B307E4074C
:100BB000F50720F0A21BB30BE40BF50B661F771FA4
:100BC000881F991F1A9469F7609570958095909584
:100BD0009B01AC01BD01CF010895AA2781110C949E
:100BE000F505A8E0892BD9F70895A3958695E8F730
:100BF0008A2F99270895AA1BBB1B51E107C0AA1F82
:100C0000BB1FA617B70710F0A61BB70B881F991FAD
:100C10005A95A9F780959095BC01CD0108954AE8B1
:100C200051E00E941D060895FB01DC018D910190A9
:100C300080190110D9F3990B0895FA01A191B0819F
:100C4000009719F41097E1F0CD01DC01CD010D9072
:100C5000002011F4C00113C0FB012191222319F0DF
:100C60002015D9F7F3CFFB012191201519F41E921D
:100C7000119606C02223C1F70D900020A1F7D001E4
:100C8000FA01A193B0830895BB274A3031F4992328
:100C900022F4BDE2909581959F4F0C945006BB279E
:100CA000FB015527AA27880F991FAA1FA41710F028
:100CB000A41B83955051B9F7A05DAA3308F0A95D34
:100CC000A193009779F7B111B1931192CB010C94D4
:100CD0006906DC01FC01672F71917723E1F73297F8
:100CE00004C07C916D9370836291AE17BF07C8F307
:060CF0000895F894FFCF07
:100CF60002726F746F722073776974636820697308
:100D060020707265737365642E0062746E206F6E58
:100D16002F6F666620697320707265737365643A17
:100D260020000D0A0062746E207265736574206976
:100D36007320707265737365640064697361626CB5
:100D46006500656E61626C6500746F67676C65004F
:100D560072656400677265656E00626C7565007722
:100D660068697465000100020000800040002000F0
:0A0D7600E000200010000800040057
:00000001FF
