:100000000C9434000C943D050C9451000C94510058
:100010000C9451000C9451000C9451000C9451001C
:100020000C9451000C9451000C9451000C9451000C
:100030000C9451000C9451000C94A5000C945100A8
:100040000C9451000C9451000C9434040C94510005
:100050000C9451000C9451000C9451000C945100DC
:100060000C9451000C94510011241FBECFEFD8E026
:10007000DEBFCDBF11E0A0E0B1E0E0EBFCE002C0EC
:1000800005900D92AA38B107D9F721E0AAE8B1E0AE
:1000900001C01D92AB3DB207E1F70E94C8000C946D
:1000A00056060C9400008295880F880F807C809300
:1000B0007C0080917C008F7D80937C008FEF860F89
:1000C000962F9827891748F4862F90E00E94CA053A
:1000D0009EEF980F8150963008F087E080937A0069
:1000E00080917A00806880937A000895ECE7F0E0D0
:1000F0009081987F8770982B9083EAE78081806455
:100100008083089580917A00002486FF0394802DD7
:1001100008958091780020917900922F08950E948F
:1001200076000E9482008115E1F30C94890084B569
:10013000826084BD85B5836085BD89EF87BDEEE6AD
:10014000F0E080818260808308951F921FB61F9225
:1001500011248F939F93AF93BF938091B901909196
:10016000BA01A091BB01B091BC010196A11DB11DC6
:100170008093B9019093BA01A093BB01B093BC01E5
:10018000BF91AF919F918F911F901FBE1F901895A7
:10019000CDB7DEB760970FB6F894DEBF0FBECDBF08
:1001A00060E881E00E94530060E875E280E090E042
:1001B0000E94F1030E9497000E942D05789484B15B
:1001C0008C6384B98AB1806E8AB9519A509A5498D6
:1001D0005C9A8091B9019091BA01A091BB01B09154
:1001E000BC0102E010E09801A801B80189EA91E0A1
:1001F0000E94A00221E030E0A901B90189EA91E062
:100200000E94AE029801A801B8018BE991E00E941A
:10021000A00221E030E0A901B9018BE991E00E9440
:10022000AE029801A801B8018DE891E00E94A002F9
:1002300021E030E0A901B9018DE891E00E94AE0211
:1002400089EA91E00E94B60221E02F87212C31E05B
:10025000388B312CD22EC12C19861A861B861C860F
:100260001D821E821F82188619821A821B821C829E
:1002700000E0710180E00E948F008D879E8781E001
:100280000E948F004090B9015090BA016090BB016C
:100290007090BC01420153018E189F08A00AB10A58
:1002A0002D853E85AFEFB0E00E9485052FEF33E04E
:1002B00040E050E00E94A805C901DA0186509F4F36
:1002C000AF4FBF4F88169906AA06BB0658F180911A
:1002D000B7019091B8018130910509F4E8C08230EE
:1002E000910509F4E7C0892B21F489EA91E00E9485
:1002F000B60280918C01811509F4DFC00E9485044B
:100300008091D901813061F40E94E5028DE891E08D
:100310000E94B6028091BD01019683708093BD0159
:1003200072018301B9B0B4FABB24B4F8CB1491F0D4
:1003300081E090E09093B8018093B7018091B9017A
:100340009091BA01A091BB01B091BC0189839A83BD
:10035000AB83BC83DB1421F18091B9019091BA0188
:10036000A091BB01B091BC0129813A814B815C8194
:10037000821B930BA40BB50B4597A105B10580F02B
:1003800080E1D82EB1100CC090918C0181E09111C8
:1003900080E080938C0181E091E00E940D04D12CDB
:1003A000A3B0A1FAAA24A1F83A1461F08091B9018E
:1003B0009091BA01A091BB01B091BC018D839E8345
:1003C000AF83B88798899A1579F18091B901909196
:1003D000BA01A091BB01B091BC012D813E814F813A
:1003E0005885821B930BA40BB50B85319105A10594
:1003F000B105D0F0A11077C080918C01813099F4C3
:100400008091000101968170809300018AE191E062
:100410000E940D048091000190E00E941A0482E382
:1004200091E00E940D04188AC3B0C0FACC24C0F831
:100430002C1461F08091B9019091BA01A091BB0197
:10044000B091BC0189879A87AB87BC879F859C1533
:1004500031F18091B9019091BA01A091BB01B091A5
:10046000BC0129853A854B855C85821B930BA40BC7
:10047000B50B4597A105B10590F0C11037C080912B
:100480008C01813059F432E03093000185E391E032
:100490000E940D0482E391E00E940D041F8680916A
:1004A00000010E943B032C2C3A2CCB2CE3CE8DE890
:1004B00091E01DCF8BE991E01ACF1092D90101E0B4
:1004C00010E09801A801B8018DE891E00E94A00217
:1004D00002E09801A801B8018DE891E00E94A00215
:1004E0000E94D7041DCF32E0388B9ECFCF86D7CF66
:1004F0008130910549F08230910559F0892B19F42A
:1005000085B1862B85B9089585B16095682365B955
:10051000089585B18627F6CF8130910549F0823064
:10052000910559F0892B19F48BB1862B8BB908955D
:100530008BB1609568236BB908958BB18627F6CF90
:100540000F931F93FC016083718342835383248341
:100550003583068317831F910F910895FC016087EF
:10056000718742875387248735870895CF93DF9318
:10057000EC0160E270E0888199810E94780268E075
:1005800070E08C819D810E94780260E170E08A8138
:100590009B810E94780264E070E08E819F810E94BE
:1005A000780260E870E0888599850E948C0260E29C
:1005B00070E08C859D850E948C0260E470E08A85E5
:1005C0009B85DF91CF910C948C02E091BD01F0E00E
:1005D000EE0FFF1FEE57FE4F808191818031910514
:1005E000E9F030F48430910599F1089711F10895FC
:1005F000809709F03FC010928E0110928D0181E02A
:1006000090E09093900180938F019093920180935A
:1006100091019093940180939301089581E090E07B
:1006200090938E0180938D011092900110928F0112
:10063000ECCF81E090E090938E0180938D019093B8
:10064000900180938F011092920110929101E1CF5D
:1006500081E090E090938E0180938D0190939001C2
:1006600080938F0190939201809391011092940155
:10067000109293010895E091DA01F0E0EE0FFF1F70
:10068000E858FE4F40815181833030F4E82FF0E08C
:10069000EB58FE4F208130E04038510561F038F4CE
:1006A0004032510591F04034510551F00895403EDB
:1006B000510581F0089530938E0120938D010895A6
:1006C0003093900120938F010895309392012093ED
:1006D000910108953093940120939301089560E36C
:1006E00071E00E94EC058093C0019093C10160E32A
:1006F00071E080E090E00E94EC058093BE01909351
:10070000BF010895CF93DF930E946F03C091C00192
:10071000D091C1016AE471E0CE010E94F105892BFC
:1007200031F481E08093C2011092C3010BC062E5F5
:1007300071E0CE010E94F105892BD1F41092C20123
:100740001092C301C091BE01D091BF0160E671E07B
:10075000CE010E94F105892BA1F48091C2019091F4
:10076000C30190939C0180939B01DF91CF910895E9
:1007700069E571E0CE010E94F105892B19F782E04D
:10078000D1CF64E671E0CE010E94F105892B49F4D6
:100790008091C2019091C30190939E0180939D012D
:1007A000E4CF6AE671E0CE010E94F105892B49F49D
:1007B0008091C2019091C3019093A00180939F0109
:1007C000D4CF6FE671E0CE010E94F105892B69F666
:1007D0008091C2019091C3019093A2018093A101E5
:1007E000C4CF9B01AC0160E472E48FE090E00E9412
:1007F000A805215031093093C5002093C40088E931
:100800008093C10086E08093C20008959091C0005B
:1008100095FFFCCF8093C6000895CF93DF93EC0142
:100820008881811103C0DF91CF91089521960E94A4
:100830000604F6CFCF93DF9300D000D000D0CDB721
:10084000DEB74AE0BE016F5F7F4F0E942106CE01F6
:1008500001960E940D040F900F900F900F900F9033
:100860000F90DF91CF9108951F920F920FB60F92C4
:1008700011242F933F934F935F936F937F938F93A5
:100880009F93AF93BF93EF93FF9382E090E0909399
:10089000B8018093B7018091C6008A3079F18D301C
:1008A00069F19091C4019331E0F4E091C401F0E06A
:1008B000EB53FE4F80838091C4018F5F8093C4010E
:1008C000FF91EF91BF91AF919F918F917F916F9128
:1008D0005F914F913F912F910F900FBE0F901F90FE
:1008E00018951092D9011092C40185EC91E00E94F4
:1008F0000D0485EC91E00E948203E2CFE091C401F7
:10090000F0E0EB53FE4F1082EECF1092D901E09150
:10091000DA01F0E0EE0FFF1FE858FE4F8081918171
:100920008034910509F128F4009751F0809761F126
:1009300008958038910541F0803E910589F1089530
:1009400081E08093D901089582E090E09093960130
:100950008093950181E090939A01809399019093FF
:10096000980180939701089582E090E09093980118
:100970008093970181E090939A01809399019093DD
:10098000960180939501089582E090E090939A01FA
:100990008093990181E09093980180939701EFCF24
:1009A00082E090E090939A0180939901F4CFE091D6
:1009B000DA01F0E0EE0FFF1FE858FE4F80819181D1
:1009C0008034910539F128F4009751F0809789F12E
:1009D00008958038910579F0803E910589F1089558
:1009E00081E090E090939A0180939901909398010F
:1009F0008093970119C0109296011092950181E0A1
:100A000090E090939A01809399019093980180933C
:100A100097010895109298011092970181E090E05B
:100A200090939A01809399019093960180939501F8
:100A3000089510929A011092990181E090E0D6CF2A
:100A400010929A01109299011092980110929701B8
:100A5000109296011092950108958AB1837E8AB909
:100A60008BB18C618BB9E9E6F0E080818260808394
:100A700080818E7F8083E89A08951F920F920FB62F
:100A80000F9211242F933F934F935F936F937F9314
:100A90008F939F93AF93BF93EF93FF9381E090E089
:100AA0009093B8018093B70180918C01811112C09D
:100AB00099B189B192FD0CC083FF1DC08091DA010C
:100AC00090E0019665E070E00E9494058093DA0161
:100AD0000E94D704FF91EF91BF91AF919F918F91A9
:100AE0007F916F915F914F913F912F910F900FBE2A
:100AF0000F901F9018958091DA01811521F0809157
:100B0000DA018150E3CF84E0E1CFA29FB001B39F2F
:100B1000C001A39F700D811D1124911DB29F700D06
:100B2000811D1124911D089597FB072E16F4009442
:100B300007D077FD09D00E94D80507FC05D03EF408
:100B4000909581959F4F0895709561957F4F089579
:100B5000A1E21A2EAA1BBB1BFD010DC0AA1FBB1FC1
:100B6000EE1FFF1FA217B307E407F50720F0A21B33
:100B7000B30BE40BF50B661F771F881F991F1A94A0
:100B800069F760957095809590959B01AC01BD01CA
:100B9000CF010895AA2781110C94D205A8E0892BD2
:100BA000D9F70895A3958695E8F78A2F9927089590
:100BB000AA1BBB1B51E107C0AA1FBB1FA617B70783
:100BC00010F0A61BB70B881F991F5A95A9F780959F
:100BD0009095BC01CD0108954AE851E00E94FA05C4
:100BE0000895FB01DC018D91019080190110D9F36A
:100BF000990B0895FA01A191B081009719F410970B
:100C0000E1F0CD01DC01CD010D90002011F4C00117
:100C100013C0FB012191222319F02015D9F7F3CF3E
:100C2000FB012191201519F41E92119606C0222372
:100C3000C1F70D900020A1F7D001FA01A193B08374
:100C40000895BB274A3031F4992322F4BDE29095F0
:100C500081959F4F0C942D06BB27FB015527AA2792
:100C6000880F991FAA1FA41710F0A41B8395505139
:100C7000B9F7A05DAA3308F0A95DA193009779F7B1
:100C8000B111B1931192CB010C944606DC01FC0129
:100C9000672F71917723E1F7329704C07C916D93B0
:100CA00070836291AE17BF07C8F30895F894FFCF21
:100CB00002726F746F72207377697463682069734E
:100CC00020707265737365642E0062746E206F6E9F
:100CD0002F6F666620697320707265737365643A5E
:100CE00020000D0A0062746E2072657365742069BD
:100CF0007320707265737365640064697361626CFC
:100D00006500656E61626C6500746F67676C650095
:100D100072656400677265656E00626C7565007768
:100D20006869746500010002000080004000200036
:0A0D3000E00020001000080004009D
:00000001FF
