:100000000C9434000C941D010C9451000C9451007C
:100010000C9451000C9451000C9451000C9451001C
:100020000C9451000C9451000C9451000C9451000C
:100030000C9451000C9451000C94A5000C945100A8
:100040000C9451000C9451000C94B5040C94510084
:100050000C9451000C9451000C9451000C945100DC
:100060000C9451000C94510011241FBECFEFD8E026
:10007000DEBFCDBF11E0A0E0B1E0E2EBFBE002C0EB
:1000800005900D92A238B107D9F721E0A2E8B1E0BE
:1000900001C01D92A13DB207E1F70E943C020C9401
:1000A000D7050C9400008295880F880F807C809380
:1000B0007C0080917C008F7D80937C008FEF860F89
:1000C000962F9827891748F4862F90E00E944B05B9
:1000D0009EEF980F8150963008F087E080937A0069
:1000E00080917A00806880937A000895ECE7F0E0D0
:1000F0009081987F8770982B9083EAE78081806455
:100100008083089580917A00002486FF0394802DD7
:1001100008958091780020917900922F08950E948F
:1001200076000E9482008115E1F30C94890084B569
:10013000826084BD85B5836085BD89EF87BDEEE6AD
:10014000F0E080818260808308951F921FB61F9225
:1001500011248F939F93AF93BF938091B20190919D
:10016000B301A091B401B091B5010196A11DB11DDB
:100170008093B2019093B301A093B401B093B50101
:10018000BF91AF919F918F911F901FBE1F901895A7
:10019000E091B101F0E0EE0FFF1FE858FE4F8081C3
:1001A000918180329105A9F120F4019748F0C1F1C5
:1001B000089580349105F1F08038910561F008953B
:1001C00081E090E09093920180939101909390014F
:1001D00080938F0119C010928E0110928D0181E0E1
:1001E00090E090939201809391019093900180937D
:1001F0008F0108951092900110928F0181E090E09C
:10020000909392018093910190938E0180938D0140
:100210000895109292011092910181E090E0D6CF62
:1002200010929201109291011092900110928F0100
:1002300010928E0110928D0108951F920F920FB6A9
:100240000F9211242F933F934F935F936F937F935C
:100250008F939F93AF93BF93EF93FF9381E090E0D1
:100260009093B0018093AF0180918401811112C0FD
:1002700099B189B192FD0CC083FF1DC08091B1017D
:1002800090E0019665E070E00E9415058093B10151
:100290000E94C800FF91EF91BF91AF919F918F9104
:1002A0007F916F915F914F913F912F910F900FBE72
:1002B0000F901F9018958091B101811521F08091C8
:1002C000B1018150E3CF84E0E1CF8130910549F065
:1002D0008230910559F0892B19F485B1862B85B9A7
:1002E000089585B16095682365B9089585B186271D
:1002F000F6CF8130910549F08230910559F0892B74
:1003000019F48BB1862B8BB908958BB16095682356
:100310006BB908958BB18627F6CFCF93DF93EC01AD
:1003200060E270E0888199810E94650168E070E078
:100330008C819D810E94650160E170E08A819B81D2
:100340000E94650164E070E08E819F810E946501DA
:1003500060E870E0888599850E94790160E270E02C
:100360008C859D850E94790160E470E08A859B857B
:10037000DF91CF910C947901E091B101F0E0EE0FA3
:10038000FF1FE858FE4F8081918180349105D1F0A4
:1003900030F48130910591F1809721F108958038F2
:1003A0009105F9F482E090E090938E0180938D01A5
:1003B00081E09093920180939101909390018093BA
:1003C0008F01089582E090E09093900180938F01D7
:1003D00081E0909392018093910190938E0180939C
:1003E0008D01089582E090E09093920180939101B5
:1003F00081E09093900180938F01EFCF82E090E0B5
:100400009093920180939101F4CFE091B101F0E0DB
:10041000EE0FFF1FE858FE4F40815181833030F4CA
:10042000E82FF0E0EB58FE4F208130E040345105DA
:1004300081F038F441305105B1F04032510571F08E
:1004400008954038510521F43093860120938501A9
:1004500008953093880120938701089530938A018D
:1004600020938901089530938A0120938901309364
:10047000880120938701E8CFCDB7DEB760970FB62C
:10048000F894DEBF0FBECDBF60E881E00E9453004C
:1004900060E875E280E090E00E9472040E9497009C
:1004A0008AB1837E8AB98BB18C618BB980916900E6
:1004B000826080936900809169008E7F80936900DB
:1004C000E89A789484B18C6384B98AB1806E8AB9D1
:1004D000519A509A54985C9A8091B2019091B301CC
:1004E000A091B401B091B50182E090E08093A101A8
:1004F0001092A2018093A3011092A4018093A50100
:100500001092A6018093A7011092A80121E030E08B
:100510002093A9011092AA012093AB011092AC0183
:100520002093AD011092AE019093940180939301BA
:1005300090939601809395019093980180939701F1
:1005400090939A018093990130939C0120939B0191
:1005500030939E0120939D013093A00120939F0131
:100560009093860180938501909388018093870101
:1005700090938A018093890190938C0180938B01E1
:1005800030938E0120938D013093900120938F0141
:10059000309392012093910181EA91E00E948D01B4
:1005A00011E0212C21E0288B312C31E03F8700E045
:1005B0001D821E821F82188619821A821B821C824B
:1005C000610171012101310180E00E948F00898762
:1005D0009A8781E00E948F008090B2019090B301D1
:1005E000A090B401B090B501C401D501841995095A
:1005F000A609B7098B879C87AD87BE8729853A8571
:10060000AFEFB0E00E9406052FEF33E040E050E08E
:100610000E942905C901DA0186509F4FAF4FBF4F95
:100620002B853C854D855E85281739074A075B0772
:10063000A0F08091AF019091B0018130910509F453
:10064000BEC08230910509F4BDC0892B21F481EA36
:1006500091E00E948D0124013501B9B0B4FABB24A8
:10066000B4F80B1541F0C090B201D090B301E09006
:10067000B401F090B5013F853B15F1F08091B201D6
:100680009091B301A091B401B091B5018C199D096D
:10069000AE09BF094597A105B10570F0B11095C02D
:1006A0009091840181E0911180E08093840181E048
:1006B00091E00E948E041F8680918401811509F4C7
:1006C00087C00E94BC01A3B0A1FAAA24A1F83A14E1
:1006D00061F08091B2019091B301A091B401B09109
:1006E000B50189839A83AB83BC8398899A1559F1A4
:1006F0008091B2019091B301A091B401B091B50184
:1007000029813A814B815C81821B930BA40BB50B31
:1007100085319105A105B105B0F0A1105CC08091B3
:10072000000101968170809300018AE191E00E94AE
:100730008E048091000190E00E949B0482E391E08E
:100740000E948E04188A03B10170201661F0809116
:10075000B2019091B301A091B401B091B5018D8324
:100760009E83AF83B887101711F18091B2019091E9
:10077000B301A091B401B091B5012D813E814F81AB
:100780005885821B930BA40BB50B4597A105B105AA
:1007900070F0011123C032E03093000185E391E055
:1007A0000E948E0482E391E00E948E0410E080910A
:1007B00000010E940502202E3A2C0B2D05CF85E862
:1007C00091E047CF83E991E044CF40E14F8774CF78
:1007D0000E94C80078CF32E0388BB5CF102FE7CF1A
:1007E00060E371E00E946D058093B8019093B901B8
:1007F00060E371E080E090E00E946D058093B601B7
:100800009093B7010895CF93DF930E94F003C091B6
:10081000B801D091B9016AE471E0CE010E9472057D
:10082000892B31F481E08093BA011092BB010BC097
:1008300062E571E0CE010E947205892BD1F410921D
:10084000BA011092BB01C091B601D091B70160E628
:1008500071E0CE010E947205892BA1F48091BA014A
:100860009091BB019093940180939301DF91CF917C
:10087000089569E571E0CE010E947205892B19F790
:1008800082E0D1CF64E671E0CE010E947205892B2F
:1008900049F48091BA019091BB01909396018093A5
:1008A0009501E4CF6AE671E0CE010E947205892BC2
:1008B00049F48091BA019091BB0190939801809383
:1008C0009701D4CF6FE671E0CE010E947205892BAB
:1008D00069F68091BA019091BB0190939A0180933F
:1008E0009901C4CF9B01AC0160E472E48FE090E019
:1008F0000E942905215031093093C5002093C4007E
:1009000088E98093C10086E08093C20008959091A9
:10091000C00095FFFCCF8093C6000895CF93DF936E
:10092000EC018881811103C0DF91CF910895219658
:100930000E948704F6CFCF93DF9300D000D000D081
:10094000CDB7DEB74AE0BE016F5F7F4F0E94A205C0
:10095000CE0101960E948E040F900F900F900F9081
:100960000F900F90DF91CF9108951F920F920FB6C5
:100970000F9211242F933F934F935F936F937F9325
:100980008F939F93AF93BF93EF93FF9382E090E099
:100990009093B0018093AF018091C6008A3079F1C5
:1009A0008D3069F19091BC019331E0F4E091BC018C
:1009B000F0E0E354FE4F80838091BC018F5F809311
:1009C000BC01FF91EF91BF91AF919F918F917F916A
:1009D0006F915F914F913F912F910F900FBE0F90AC
:1009E0001F9018951092D1011092BC018DEB91E0EF
:1009F0000E948E048DEB91E00E940304E2CFE0910F
:100A0000BC01F0E0E354FE4F1082EECFA29FB00194
:100A1000B39FC001A39F700D811D1124911DB29F32
:100A2000700D811D1124911D089597FB072E16F45A
:100A3000009407D077FD09D00E94590507FC05D026
:100A40003EF4909581959F4F0895709561957F4FE5
:100A50000895A1E21A2EAA1BBB1BFD010DC0AA1FFF
:100A6000BB1FEE1FFF1FA217B307E407F50720F017
:100A7000A21BB30BE40BF50B661F771F881F991F92
:100A80001A9469F760957095809590959B01AC01DB
:100A9000BD01CF010895AA2781110C945305A8E048
:100AA000892BD9F70895A3958695E8F78A2F99277A
:100AB0000895AA1BBB1B51E107C0AA1FBB1FA617A5
:100AC000B70710F0A61BB70B881F991F5A95A9F7F7
:100AD00080959095BC01CD01089542E851E00E94B7
:100AE0007B050895FB01DC018D91019080190110B7
:100AF000D9F3990B0895FA01A191B081009719F4E7
:100B00001097E1F0CD01DC01CD010D90002011F432
:100B1000C00113C0FB012191222319F02015D9F740
:100B2000F3CFFB012191201519F41E92119606C0F6
:100B30002223C1F70D900020A1F7D001FA01A19363
:100B4000B0830895BB274A3031F4992322F4BDE2E3
:100B5000909581959F4F0C94AE05BB27FB015527BF
:100B6000AA27880F991FAA1FA41710F0A41B83950A
:100B70005051B9F7A05DAA3308F0A95DA193009781
:100B800079F7B111B1931192CB010C94C705DC0137
:100B9000FC01672F71917723E1F7329704C07C91B4
:100BA0006D9370836291AE17BF07C8F30895F894F0
:020BB000FFCF75
:100BB20002726F746F72207377697463682069734D
:100BC20020707265737365642E0062746E206F6E9E
:100BD2002F6F666620697320707265737365643A5D
:100BE20020000D0A0062746E2072657365742069BC
:100BF2007320707265737365640064697361626CFB
:100C02006500656E61626C6500746F67676C650094
:100C120072656400677265656E00626C7565007767
:100C22006869746500010002000080004000200035
:020C32000100BF
:00000001FF
