:100000000C9434000C941D010C9451000C9451007C
:100010000C9451000C9451000C9451000C9451001C
:100020000C9451000C9451000C9451000C9451000C
:100030000C9451000C9451000C94A5000C945100A8
:100040000C9451000C9451000C94D5030C94510065
:100050000C9451000C9451000C9451000C945100DC
:100060000C9451000C94510011241FBECFEFD8E026
:10007000DEBFCDBF11E0A0E0B1E0E8E8F9E002C0EA
:1000800005900D92A833B107D9F721E0A8E3B1E0BC
:1000900001C01D92A738B207E1F70E9405020C9437
:1000A000C2040C9400008295880F880F807C809396
:1000B0007C0080917C008F7D80937C008FEF860F89
:1000C000962F9827891748F4862F90E00E946B049A
:1000D0009EEF980F8150963008F087E080937A0069
:1000E00080917A00806880937A000895ECE7F0E0D0
:1000F0009081987F8770982B9083EAE78081806455
:100100008083089580917A00002486FF0394802DD7
:1001100008958091780020917900922F08950E948F
:1001200076000E9482008115E1F30C94890084B569
:10013000826084BD85B5836085BD89EF87BDEEE6AD
:10014000F0E080818260808308951F921FB61F9225
:1001500011248F939F93AF93BF93809168019091E7
:100160006901A0916A01B0916B010196A11DB11DB9
:100170008093680190936901A0936A01B0936B0129
:10018000BF91AF919F918F911F901FBE1F901895A7
:10019000E0916701F0E0EE0FFF1FE050FF4F80811C
:1001A000918180329105A9F120F4019748F0C1F1C5
:1001B000089580349105F1F08038910561F008953B
:1001C00081E090E09093480180934701909346012D
:1001D0008093450119C0109244011092430181E0BF
:1001E00090E090934801809347019093460180935B
:1001F00045010895109246011092450181E090E07A
:100200009093480180934701909344018093430168
:100210000895109248011092470181E090E0D6CFF6
:100220001092480110924701109246011092450128
:10023000109244011092430108951F920F920FB63D
:100240000F9211242F933F934F935F936F937F935C
:100250008F939F93AF93BF93EF93FF9381E090E0D1
:10026000909366018093650180913A01811112C0DB
:1002700099B189B192FD0CC083FF1DC080916701C7
:1002800090E0019665E070E00E943504809367017C
:100290000E94C800FF91EF91BF91AF919F918F9104
:1002A0007F916F915F914F913F912F910F900FBE72
:1002B0000F901F90189580916701811521F0809112
:1002C00067018150E3CF84E0E1CF8130910549F0AF
:1002D0008230910559F0892B19F485B1862B85B9A7
:1002E000089585B16095682365B9089585B186271D
:1002F000F6CF8130910549F08230910559F0892B74
:1003000019F48BB1862B8BB908958BB16095682356
:100310006BB908958BB18627F6CFCF93DF93EC01AD
:1003200060E270E0888199810E94650168E070E078
:100330008C819D810E94650160E170E08A819B81D2
:100340000E94650164E070E08E819F810E946501DA
:1003500060E870E0888599850E94790160E270E02C
:100360008C859D850E94790160E470E08A859B857B
:10037000DF91CF910C947901E0916701F0E0EE0FED
:10038000FF1FE050FF4F8081918180349105D1F0B3
:1003900030F48130910591F1809721F108958038F2
:1003A0009105F9F482E090E0909344018093430139
:1003B00081E0909348018093470190934601809398
:1003C0004501089582E090E09093460180934501B5
:1003D00081E090934801809347019093440180937A
:1003E0004301089582E090E0909348018093470193
:1003F00081E09093460180934501EFCF82E090E049
:100400009093480180934701F4CFCDB7DEB728978A
:100410000FB6F894DEBF0FBECDBF60E881E00E944A
:10042000530060E875E280E090E00E94AC030E9417
:1004300097008AB1837E8AB98BB18C618BB9809128
:100440006900826080936900809169008E7F80934B
:100450006900E89A789484B18C6384B98AB1806E1B
:100460008AB9519A509A54985C9A809168019091F7
:100470006901A0916A01B0916B0182E090E08093E4
:100480005701109258018093590110925A0180939C
:100490005B0110925C0180935D0110925E0121E08E
:1004A00030E020935F01109260012093610110926F
:1004B0006201209363011092640190934A0180933A
:1004C000490190934C0180934B0190934E0180938E
:1004D0004D019093500180934F013093520120932E
:1004E00051013093540120935301309356012093CE
:1004F000550190933C0180933B0190933E01809382
:100500003D019093400180933F019093420180937D
:1005100041013093440120934301309346012093DD
:100520004501309348012093470187E591E00E94FF
:100530008D0121E02F831886E12CF12C6701260123
:10054000360180E00E948F0089839A8381E00E94B7
:100550008F008090680190906901A0906A01B0902E
:100560006B01C401D50184199509A609B7098B83CC
:100570009C83AD83BE8329813A81AFEFB0E00E94B6
:1005800026042FEF33E040E050E00E944904C90107
:10059000DA0186509F4FAF4FBF4F2B813C814D8179
:1005A0005E81281739074A075B07A0F08091650133
:1005B000909166018130910509F440C08230910527
:1005C00009F43FC0892B21F487E591E00E948D0159
:1005D00024013501B9B0B4FABB24B4F838853B1511
:1005E00041F0C0906801D0906901E0906A01F090FC
:1005F0006B014F814B15D1F0809168019091690199
:10060000A0916A01B0916B018C199D09AE09BF09D7
:100610004597A105B10550F0B11016C090913A016F
:1006200081E0911180E080933A011F8280913A012C
:10063000811569F00E94BC01B88683CF8BE391E0FD
:10064000C5CF89E491E0C2CF50E15F83EFCF0E9434
:10065000C800F2CF6AE071E00E948D0480936E01C1
:1006600090936F016AE071E080E090E00E948D0459
:1006700080936C0190936D010895CF93DF930E9456
:100680002A03C0916E01D0916F016CE071E0CE0140
:100690000E949204892B31F481E0809370011092C2
:1006A00071010BC064E171E0CE010E949204892BBC
:1006B000D1F41092700110927101C0916C01D0912F
:1006C0006D0162E271E0CE010E949204892BA1F4D7
:1006D000809170019091710190934A01809349013A
:1006E000DF91CF9108956BE171E0CE010E949204F9
:1006F000892B19F782E0D1CF66E271E0CE010E942A
:100700009204892B49F4809170019091710190932A
:100710004C0180934B01E4CF6CE271E0CE010E946A
:100720009204892B49F4809170019091710190930A
:100730004E0180934D01D4CF61E371E0CE010E9460
:100740009204892B69F680917001909171019093C8
:10075000500180934F01C4CF9B01AC0160E472E46F
:100760008FE090E00E944904215031093093C50088
:100770002093C40088E98093C10086E08093C20082
:1007800008959091C00095FFFCCF8093C600089516
:10079000CF93DF93EC018881811103C0DF91CF916A
:1007A000089521960E94C103F6CF1F920F920FB6B3
:1007B0000F9211242F933F934F935F936F937F93E7
:1007C0008F939F93AF93BF93EF93FF9382E090E05B
:1007D00090936601809365018091C6008A3079F11B
:1007E0008D3069F1909172019331E0F4E0917201E2
:1007F000F0E0ED58FE4F8083809172018F5F80930F
:100800007201FF91EF91BF91AF919F918F917F9175
:100810006F915F914F913F912F910F900FBE0F906D
:100820001F901895109287011092720183E791E052
:100830000E94C80383E791E00E943D03E2CFE0916C
:100840007201F0E0ED58FE4F1082EECFA29FB00192
:10085000B39FC001A39F700D811D1124911DB29FF4
:10086000700D811D1124911D089597FB072E16F41C
:10087000009407D077FD09D00E94790407FC05D0C9
:100880003EF4909581959F4F0895709561957F4FA7
:100890000895A1E21A2EAA1BBB1BFD010DC0AA1FC1
:1008A000BB1FEE1FFF1FA217B307E407F50720F0D9
:1008B000A21BB30BE40BF50B661F771F881F991F54
:1008C0001A9469F760957095809590959B01AC019D
:1008D000BD01CF010895AA2781110C947304A8E0EB
:1008E000892BD9F70895A3958695E8F78A2F99273C
:1008F0000895AA1BBB1B51E107C0AA1FBB1FA61767
:10090000B70710F0A61BB70B881F991F5A95A9F7B8
:1009100080959095BC01CD01089548E351E00E9477
:100920009B040895FB01DC018D9101908019011059
:10093000D9F3990B0895FA01A191B081009719F4A8
:100940001097E1F0CD01DC01CD010D90002011F4F4
:10095000C00113C0FB012191222319F02015D9F702
:10096000F3CFFB012191201519F41E92119606C0B8
:100970002223C1F70D900020A1F7D001FA01A19325
:08098000B0830895F894FFCF45
:1009880000008000400020000100200064697361BD
:10099800626C6500656E61626C6500746F67676C98
:1009A800650072656400677265656E00626C7565E6
:0809B800007768697465000016
:00000001FF
