:100000000C9434000C94C8000C9451000C945100D2
:100010000C9451000C9451000C9451000C9451001C
:100020000C9451000C9451000C9451000C9451000C
:100030000C9451000C9451000C94A5000C945100A8
:100040000C9451000C9451000C946D020C945100CE
:100050000C9451000C9451000C9451000C945100DC
:100060000C9451000C94510011241FBECFEFD8E026
:10007000DEBFCDBF11E0A0E0B1E0E6E1F7E002C0F5
:1000800005900D92A033B107D9F721E0A0E3B1E0CC
:1000900001C01D92A535B207E1F70E9408010C943A
:1000A00089030C9400008295880F880F807C8093D0
:1000B0007C0080917C008F7D80937C008FEF860F89
:1000C000962F9827891748F4862F90E00E94FD020A
:1000D0009EEF980F8150963008F087E080937A0069
:1000E00080917A00806880937A000895ECE7F0E0D0
:1000F0009081987F8770982B9083EAE78081806455
:100100008083089580917A00002486FF0394802DD7
:1001100008958091780020917900922F08950E948F
:1001200076000E9482008115E1F30C94890084B569
:10013000826084BD85B5836085BD89EF87BDEEE6AD
:10014000F0E080818260808308951F921FB61F9225
:1001500011248F939F93AF93BF938091330190911C
:100160003401A0913501B09136010196A11DB11D58
:100170008093330190933401A0933501B0933601FD
:10018000BF91AF919F918F911F901FBE1F901895A7
:100190000F920FB60F921F9211245F936F937F936C
:1001A0008F939F93AF93BF93EF93FF9389B199B1CF
:1001B00082FD0CC08091320193FF24C090E0019633
:1001C00065E070E00E94C702809332018BB18F71AD
:1001D0008BB98BB1E0913201F0E0EE0FFF1FEF5FC2
:1001E000FE4F9081892B8BB9FF91EF91BF91AF9119
:1001F0009F918F917F916F915F911F900F900FBE94
:100200000F901895811511F08150DECF84E0DCCF7E
:1002100000D0CDB7DEB760E881E00E94530060E80F
:1002200075E280E090E00E94CB010E9497008AB1C5
:10023000837E8AB98BB18C618BB9809169008260B1
:1002400080936900809169008E7F80936900E89AAD
:10025000789484B190910001892B84B985B19091F3
:100260000001892B85B9579A569A559A54985C9AE9
:100270008091330190913401A0913501B091360104
:100280008091330190913401A0913501B0913601F4
:100290008091330190913401A0913501B0913601E4
:1002A0008091330190913401A0913501B0913601D4
:1002B000A12CB12C450180E00E948F0089839A8394
:1002C00081E00E948F00C0903301D0903401E09013
:1002D0003501F090360126013701481859086A089F
:1002E0007B0829813A81AFEFB0E00E94B8022FEF7E
:1002F00033E040E050E00E94DB02C901DA018650A1
:100300009F4FAF4FBF4F481659066A067B0698F2BB
:1003100085B190910001892785B980913F01813095
:10032000B9F480913D0190913E018130910599F0A1
:1003300082309105A9F0892B59F480913B01809579
:100340009091000189238093000195B1892785B997
:1003500046015701B0CF85B190913B01892BF7CF72
:100360008091000190913B01892B80930001F0CF97
:100370006BE071E00E941F038093390190933A0172
:100380006BE071E080E090E00E941F0380933701F2
:100390009093380108959B01AC0160E472E48FE012
:1003A00090E00E94DB02215031093093C500209378
:1003B000C40088E98093C10086E08093C20008955C
:1003C0009091C00095FFFCCF8093C6000895CF9315
:1003D000DF93EC018881811103C0DF91CF910895F3
:1003E00021960E94E001F6CFCF93DF9300D000D09A
:1003F00000D0CDB7DEB74AE0BE016F5F7F4F0E94ED
:100400005403CE0101960E94E7010F900F900F90C8
:100410000F900F900F90DF91CF910895CF93DF93BE
:10042000EC0181E080933F0190E00E94F401CE0155
:100430000E94B801C0913901D0913A016DE071E09C
:10044000CE010E942403892BB9F410923D01109231
:100450003E01C0913701D09138016BE171E0CE01CE
:100460000E942403892BF1F480E280933B011092D7
:100470003C01DF91CF91089561E171E0CE010E94CE
:100480002403892B31F481E080933D0110923E01D9
:10049000E0CF64E171E0CE010E942403892BC9F60C
:1004A00082E0F2CF6FE171E0CE010E942403892B3C
:1004B00011F480E1DACF65E271E0CE010E942403FD
:1004C000892B11F488E0D1CF6AE271E0CE010E945D
:1004D0002403892B71F684E0C8CF1F920F920FB6C8
:1004E0000F9211242F933F934F935F936F937F93BA
:1004F0008F939F93AF93BF93EF93FF938091C60029
:100500008A3079F18D3069F1909140019331E0F4B6
:10051000E0914001F0E0EF5BFE4F8083809140016D
:100520008F5F80934001FF91EF91BF91AF919F91B9
:100530008F917F916F915F914F913F912F910F908C
:100540000FBE0F901F901895109255011092400108
:1005500081E491E00E94E70181E491E00E940E02B3
:10056000E2CFE0914001F0E0EF5BFE4F1082EECF72
:10057000A29FB001B39FC001A39F700D811D1124E4
:10058000911DB29F700D811D1124911D089597FB3F
:10059000072E16F4009407D077FD09D00E940B03B4
:1005A00007FC05D03EF4909581959F4F0895709576
:1005B00061957F4F0895A1E21A2EAA1BBB1BFD0176
:1005C0000DC0AA1FBB1FEE1FFF1FA217B307E40732
:1005D000F50720F0A21BB30BE40BF50B661F771F8A
:1005E000881F991F1A9469F760957095809590956A
:1005F0009B01AC01BD01CF010895AA2781110C9484
:100600000503A8E0892BD9F70895A3958695E8F707
:100610008A2F99270895AA1BBB1B51E107C0AA1F67
:10062000BB1FA617B70710F0A61BB70B881F991F93
:100630005A95A9F780959095BC01CD01089540E3A6
:1006400051E00E942D030895FB01DC018D91019082
:1006500080190110D9F3990B0895FA01A191B08185
:10066000009719F41097E1F0CD01DC01CD010D9058
:10067000002011F4C00113C0FB012191222319F0C5
:100680002015D9F7F3CFFB012191201519F41E9203
:10069000119606C02223C1F70D900020A1F7D001CA
:1006A000FA01A193B0830895BB274A3031F499230E
:1006B00022F4BDE2909581959F4F0C946003BB2777
:1006C000FB015527AA27880F991FAA1FA41710F00E
:1006D000A41B83955051B9F7A05DAA3308F0A95D1A
:1006E000A193009779F7B111B1931192CB010C94BA
:1006F0007903DC01FC01672F71917723E1F73297D1
:1007000004C07C916D9370836291AE17BF07C8F3EC
:060710000895F894FFCFEC
:100716003C0000800040002000E00020006F66667C
:10072600006F6E00746F67676C65007265640067C2
:100736007265656E00626C75650077686974650040
:00000001FF
