:100000000C9434000C94B4020C9451000C945100E4
:100010000C9451000C9451000C9451000C9451001C
:100020000C9451000C9451000C9451000C9451000C
:100030000C9451000C9451000C94A5000C945100A8
:100040000C9451000C9451000C9453020C945100E8
:100050000C9451000C9451000C9451000C945100DC
:100060000C9451000C94510011241FBECFEFD8E026
:10007000DEBFCDBF11E0A0E0B1E0ECE1F7E002C0EF
:1000800005900D92A633B107D9F721E0A6E3B1E0C0
:1000900001C01D92A136B207E1F70E94C8000C947E
:1000A0008C030C9400008295880F880F807C8093CD
:1000B0007C0080917C008F7D80937C008FEF860F89
:1000C000962F9827891748F4862F90E00E943503D1
:1000D0009EEF980F8150963008F087E080937A0069
:1000E00080917A00806880937A000895ECE7F0E0D0
:1000F0009081987F8770982B9083EAE78081806455
:100100008083089580917A00002486FF0394802DD7
:1001100008958091780020917900922F08950E948F
:1001200076000E9482008115E1F30C94890084B569
:10013000826084BD85B5836085BD89EF87BDEEE6AD
:10014000F0E080818260808308951F921FB61F9225
:1001500011248F939F93AF93BF938091430190910C
:100160004401A0914501B09146010196A11DB11D28
:100170008093430190934401A0934501B0934601BD
:10018000BF91AF919F918F911F901FBE1F901895A7
:1001900000D000D000D0CDB7DEB760E881E00E948B
:1001A000530060E875E280E090E00E942A020E941D
:1001B00097000E94A402789484B18C6384B985B1BD
:1001C0008C6385B98AB1806E8AB98BB1806E8BB928
:1001D0008091430190914401A0914501B091460165
:1001E000109238011092390110923A0110923B019D
:1001F000E12CF12C670180E00E948F0089839A83B3
:1002000081E00E948F008090430190904401A09073
:100210004501B090460140903801509039016090FE
:100220003A0170903B01C401D5018C199D09AE09BA
:10023000BF098B839C83AD83BE8329813A81AFEF55
:10024000B0E00E94F0022FEF33E040E050E00E9467
:1002500013039AEF490E511C611C711C420E531E70
:10026000641E751E8B819C81AD81BE8184159505B0
:10027000A605B70540F080913F019CE38927809354
:100280003F016401750180913F0180933E0180919F
:100290003F0180933D0180913F0180933C010E948A
:1002A0009C0180914101909142018130910581F042
:1002B00082309105E1F0892B09F09DCF95B18091B5
:1002C0003E018C73937C892B85B98BB18F710DC0E6
:1002D00085B190913C01837C9C73892B85B99BB13E
:1002E00080913C01807E9F71892B8BB984CF95B121
:1002F00080913D01E6CFFB01208131812130310524
:1003000061F02230310579F0232B61F490913D01A9
:100310008095892380933D01089590913D01982B0C
:1003200090933D01089530913D0120913F01982F18
:10033000909593238223F3CF8091410190914201C4
:100340000297A1F466E071E080E20E947B0164E024
:1003500071E080E10E947B0162E071E088E00E9430
:100360007B0160E071E084E00C947B01089568E01B
:1003700071E00E9457038093490190934A0168E01D
:1003800071E080E090E00E945703809347019093D2
:10039000480108950F931F93CF93DF930E94B701F5
:1003A0000091490110914A016AE071E0C8010E9480
:1003B0005C03892B11F162E171E0C8010E945C03CA
:1003C000892BF1F069E171E0C8010E945C03892B7F
:1003D000D1F0009147011091480160E271E0C8013D
:1003E0000E945C03892B91F4D0930701C09306010E
:1003F000DF91CF911F910F910895C0E0D0E0E9CF38
:10040000C2E0D0E0E6CFC1E0D0E0E3CF64E271E04B
:10041000C8010E945C03892B29F4D0930501C09385
:100420000401E6CF6AE271E0C8010E945C03892BF7
:1004300029F4D0930301C0930201DACF6FE271E097
:10044000C8010E945C03892B99F6D0930101C093E7
:100450000001CECF9B01AC0160E472E48FE090E03C
:100460000E941303215031093093C5002093C4002A
:1004700088E98093C10086E08093C200089590913E
:10048000C00095FFFCCF8093C6000895CF93DF9303
:10049000EC018881811103C0DF91CF9108952196ED
:1004A0000E943F02F6CF1F920F920FB60F921124B7
:1004B0002F933F934F935F936F937F938F939F936C
:1004C000AF93BF93EF93FF9382E090E0909342014C
:1004D000809341018091C6008A3079F18D3069F1B5
:1004E00090914B019331E0F4E0914B01F0E0E45B3B
:1004F000FE4F808380914B018F5F80934B01FF9172
:10050000EF91BF91AF919F918F917F916F915F918B
:100510004F913F912F910F900FBE0F901F90189504
:100520001092600110924B018CE491E00E9446020F
:100530008CE491E00E94CA01E2CFE0914B01F0E02F
:10054000E45BFE4F1082EECF8AB1837E8AB98BB115
:100550008C618BB9E9E6F0E08081826080838081E4
:100560008E7F8083E89A08950F920FB60F921F92A4
:1005700011245F936F937F938F939F93AF93BF9358
:1005800081E090E09093420180934101809140018D
:10059000811110C099B189B192FD0CC083FF16C0C2
:1005A0008091600190E0019665E070E00E94FF029A
:1005B00080936001BF91AF919F918F917F916F91D7
:1005C0005F911F900F900FBE0F9018958091600162
:1005D000811521F0809160018150EACF84E0E8CF5D
:1005E000A29FB001B39FC001A39F700D811D112474
:1005F000911DB29F700D811D1124911D089597FBCF
:10060000072E16F4009407D077FD09D00E9443030B
:1006100007FC05D03EF4909581959F4F0895709505
:1006200061957F4F0895A1E21A2EAA1BBB1BFD0105
:100630000DC0AA1FBB1FEE1FFF1FA217B307E407C1
:10064000F50720F0A21BB30BE40BF50B661F771F19
:10065000881F991F1A9469F76095709580959095F9
:100660009B01AC01BD01CF010895AA2781110C9413
:100670003D03A8E0892BD9F70895A3958695E8F75F
:100680008A2F99270895AA1BBB1B51E107C0AA1FF7
:10069000BB1FA617B70710F0A61BB70B881F991F23
:1006A0005A95A9F780959095BC01CD01089546E330
:1006B00051E00E9465030895FB01DC018D910190DA
:1006C00080190110D9F3990B0895FA01A191B08115
:1006D000009719F41097E1F0CD01DC01CD010D90E8
:1006E000002011F4C00113C0FB012191222319F055
:1006F0002015D9F7F3CFFB012191201519F41E9293
:10070000119606C02223C1F70D900020A1F7D00159
:0C071000FA01A193B0830895F894FFCF84
:10071C000200020002000200200064697361626C36
:10072C006500656E61626C6500746F67676C65006F
:10073C0072656400677265656E00626C7565007742
:06074C00686974650000FD
:00000001FF
