:100000000C9434000C944D020C9451000C9451004B
:100010000C9451000C9451000C9451000C9451001C
:100020000C9451000C9451000C9451000C9451000C
:100030000C9451000C9451000C9482000C945100CB
:100040000C9451000C9451000C94A6010C94510096
:100050000C9451000C9451000C9451000C945100DC
:100060000C9451000C94510011241FBECFEFD8E026
:10007000DEBFCDBF11E0A0E0B1E0E2EFF5E002C0ED
:1000800005900D92AA35B107D9F721E0AAE5B1E0B4
:1000900001C01D92AB38B207E1F70E94A5000C9495
:1000A000F7020C940000ECE7F0E09081987F8770F5
:1000B000982B9083EAE78081806480830895809103
:1000C0007A00002486FF0394802D089580917800A3
:1000D00020917900922F08950E9453000E945F00A2
:1000E0008115E1F30C94660084B5826084BD85B50A
:1000F000836085BD89EF87BDEEE6F0E08081826098
:10010000808308951F921FB61F9211248F939F938F
:10011000AF93BF9380916F0190917001A091710195
:10012000B09172010196A11DB11D80936F01909352
:100130007001A0937101B0937201BF91AF919F9133
:100140008F911F901FBE1F90189500D0CDB7DEB7BE
:1001500060E875E280E090E00E944B010E9474002C
:10016000789410926E0110926D0184B18C6384B901
:1001700085B18C6385B92198209885B1836085B954
:1001800080916F0190917001A0917101B091720105
:10019000E12CF12C670180E00E946C0089839A8336
:1001A00081E00E946C0080906F0190907001A0909F
:1001B0007101B0907201240135014C185D086E0880
:1001C0007F0829813A81AFEFB0E00E9495022FEFBE
:1001D00033E040E050E00E94B802C901DA018650E5
:1001E0009F4FAF4FBF4F481659066A067B0640F037
:1001F00080915D019CE3892780935D016401750115
:1002000080915D0190915D0190935C0123B193B168
:1002100021FD07C021E020935A0110926E01109237
:100220006D0190FD03C092E090935A0190915B01A3
:100230009130C9F490915C019F7D90935C01909105
:100240005A019130F9F48F7E20916D0130916E0149
:1002500095B12230310511F480915C018C73937C4F
:10026000892B85B998CF90915B01923021F49091C0
:100270005C019062E2CF90915D0120915D0125FBD0
:1002800095F9DBCF90915A019230F1F690915D0192
:100290009071892BD9CF9B01AC0160E472E48FE0AF
:1002A00090E00E94B802215031093093C50020939C
:1002B000C40088E98093C10086E08093C20008955D
:1002C0009091C00095FFFCCF8093C6000895CF9316
:1002D000DF93EC018881811103C0DF91CF910895F4
:1002E00021960E946001F6CFCF93DF93EC018093BB
:1002F0007301D09374016AE071E00E94EE02892BD1
:1003000049F481E080935B0186E191E0DF91CF9138
:100310000C94670165E271E0CE010E94EE02892B28
:1003200029F410925B0180E391E0F0CF6FE371E07C
:10033000CE010E94EE02892B31F482E080935B01B2
:100340008AE491E0E3CFDF91CF9108951F920F925D
:100350000FB60F9211242F933F934F935F936F9398
:100360007F938F939F93AF93BF93EF93FF9382E01D
:1003700090E090936E0180936D018091C6008A3069
:1003800079F18D3069F1909175019331E0F4E0914C
:100390007501F0E0EA58FE4F8083809175018F5F10
:1003A00080937501FF91EF91BF91AF919F918F91D4
:1003B0007F916F915F914F913F912F910F900FBE61
:1003C0000F901F90189510928A011092750186E780
:1003D00091E00E94670186E791E00E947401E2CFFC
:1003E000E0917501F0E0EA58FE4F1082EECFE09107
:1003F0008A01F0E0EE0FFF1FE050FF4F80819181F6
:100400008034910539F128F4009751F0809789F1F3
:1004100008958038910579F0803E910589F108951D
:1004200081E090E090936C0180936B0190936A015E
:100430008093690119C0109268011092670181E0F0
:1004400090E090936C0180936B0190936A0180938C
:100450006901089510926A011092690181E090E0AB
:1004600090936C0180936B01909368018093670176
:10047000089510926C0110926B0181E090E0D6CF4C
:1004800010926C0110926B0110926A011092690136
:10049000109268011092670108951F920F920FB693
:1004A0000F9211242F933F934F935F936F937F93FA
:1004B0008F939F93AF93BF93EF93FF9381E090E06F
:1004C00090936E0180936D0180915E01811112C045
:1004D00099B189B192FD0CC083FF1DC080918A0142
:1004E00090E0019665E070E00E94A40280938A018A
:1004F0000E94F701FF91EF91BF91AF919F918F9172
:100500007F916F915F914F913F912F910F900FBE0F
:100510000F901F90189580918A01811521F080918C
:100520008A018150E3CF84E0E1CFA29FB001B39F65
:10053000C001A39F700D811D1124911DB29F700DEC
:10054000811D1124911D089597FB072E16F4009428
:1005500007D077FD09D00E94DA0207FC05D03EF4EF
:10056000909581959F4F0895709561957F4F08955F
:10057000A1E21A2EAA1BBB1BFD010DC0AA1FBB1FA7
:10058000EE1FFF1FA217B307E407F50720F0A21B19
:10059000B30BE40BF50B661F771F881F991F1A9486
:1005A00069F760957095809590959B01AC01BD01B0
:1005B000CF010895AA1BBB1B51E107C0AA1FBB1F97
:1005C000A617B70710F0A61BB70B881F991F5A95DF
:1005D000A9F780959095BC01CD010895FB01DC0140
:1005E0008D91019080190110D9F3990B0895F89419
:0205F000FFCF3B
:1005F2000000800040002000E00064697361626CCA
:100602006520726564007265642069732064697391
:1006120061626C6500656E61626C65207265640082
:1006220072656420697320656E61626C6564007432
:100632006F67676C65207265640072656420697318
:0A06420020746F67676C65640000A8
:00000001FF
