:100000000C9434000C9470050C9451000C94510025
:100010000C9451000C9451000C9451000C9451001C
:100020000C9451000C9451000C9451000C9451000C
:100030000C9451000C9451000C94A5000C945100A8
:100040000C9451000C9451000C940B050C9451002D
:100050000C9451000C9451000C9451000C945100DC
:100060000C9451000C94510011241FBECFEFD8E026
:10007000DEBFCDBF11E0A0E0B1E0EEEFFCE002C0DA
:1000800005900D92A638B107D9F721E0A6E8B1E0B6
:1000900001C01D92A93CB207E1F70E94C8000C9470
:1000A0007D060C9400008295880F880F807C8093D9
:1000B0007C0080917C008F7D80937C008FEF860F89
:1000C000962F9827891748F4862F90E00E94F10513
:1000D0009EEF980F8150963008F087E080937A0069
:1000E00080917A00806880937A000895ECE7F0E0D0
:1000F0009081987F8770982B9083EAE78081806455
:100100008083089580917A00002486FF0394802DD7
:1001100008958091780020917900922F08950E948F
:1001200076000E9482008115E1F30C94890084B569
:10013000826084BD85B5836085BD89EF87BDEEE6AD
:10014000F0E080818260808308951F921FB61F9225
:1001500011248F939F93AF93BF93809195019091BA
:100160009601A0919701B09198010196A11DB11D32
:100170008093950190939601A0939701B093980175
:10018000BF91AF919F918F911F901FBE1F901895A7
:10019000CDB7DEB766970FB6F894DEBF0FBECDBF02
:1001A00060E881E00E94530060E875E280E090E042
:1001B0000E94C8040E9497000E946005789484B150
:1001C0008C6384B985B18C6385B98AB1806E8AB934
:1001D0008BB1806E8BB92198299A2098289A8091AA
:1001E000950190919601A0919701B091980183B1EA
:1001F00082708E8B83B1182F117089B180718D8BB5
:10020000109288011092890110928A0110928B013C
:10021000082F212E3E8819861A861B861C861D8271
:100220001E821F82188619821A821B821C82A12CB0
:10023000B12C450180E00E948F008D879E8781E070
:100240000E948F008F87988B409095015090960167
:100250006090970170909801C0908801D0908901BA
:10026000E0908A01F0908B019201A30128193909CD
:100270004A095B09298B3A8B4B8B5C8B2D853E851C
:10028000AFEFB0E00E94AC052FEF33E040E050E06C
:100290000E94CF058AEFC80ED11CE11CF11CC20ED2
:1002A000D31EE41EF51E29893A894B895C892C15D9
:1002B0003D054E055F05A0F0809191013CE3832749
:1002C000809391018091900140EE8427809390016A
:1002D0008091A301019683708093A3014201530191
:1002E0008091A1019091A201019709F006C12F858B
:1002F0003889AFEFB0E00E94AC052FEF33E040E06B
:1003000050E00E94CF0520938801309389014093EB
:100310008A0150938B018091910180938F0180918C
:10032000910180938E018091910180938D01809144
:10033000900180938C01F9B0F4FAFF24F4F85D8900
:100340005F1591F081E090E0909394018093930188
:10035000209195013091960140919701509198011B
:1003600029833A834B835C830F15A9F18091950112
:1003700090919601A0919701B091980129813A81BD
:100380004B815C81821B930BA40BB50B4597A10598
:10039000B10508F1F110BAC09091920181E091117C
:1003A00080E0809392018091A1019091A201019738
:1003B00021F41092A2011092A10181E191E00E942A
:1003C000E4048091920190E00E94F1048BE291E0BC
:1003D0000E94E40400E0E3B0E1FAEE24E1F84E8983
:1003E0004E1561F08091950190919601A091970131
:1003F000B09198018D839E83AF83B8873E1469F1D5
:100400008091950190919601A0919701B0919801EA
:100410002D813E814F815885821B930BA40BB50B18
:1004200085319105A105B105C0F082E0382EE110BB
:1004300014C08091000101968170809300018EE2CA
:1004400091E00E94E4048091000190E00E94F10498
:100450008BE291E00E94E404312C33B131703D878E
:10046000131761F08091950190919601A0919701E9
:10047000B091980189879A87AB87BC879D8529169B
:1004800021F18091950190919601A0919701B091F1
:10049000980129853A854B855C85821B930BA40BBB
:1004A000B50B4597A105B10580F03D852D8431112F
:1004B0000CC042E04093000186E491E00E94E40415
:1004C0008BE291E00E94E404212C0E943904809187
:1004D00093019091940181309105E9F0823091056A
:1004E00061F1892B31F595B180918F018C73937CEB
:1004F000892B85B98BB18F711BC010928801109226
:10050000890110928A0110928B0105CF33E030935C
:10051000000100E160CF95B180918D018C73937CD7
:10052000892B85B99BB180918C01807E9F71892B2D
:100530008BB9FD8A1D85EE8A7DCE95B180918E01A5
:10054000D5CF80919301909194018130910519F15B
:10055000029701F580910F01909110019093A501F0
:100560008093A40180910D0190910E019093A701B9
:100570008093A60180910B0190910C019093A901A9
:100580008093A8018091090190910A019093AB0199
:100590008093AA0108958091A1019091A2010197F1
:1005A000E9F480919F019091A0019093A50180931F
:1005B000A40180919D0190919E019093A701809349
:1005C000A60180919B0190919C019093A901809339
:1005D000A8018091990190919A01D8CF809107014B
:1005E000909108019093A5018093A4018091050149
:1005F000909106019093A7018093A6018091030139
:10060000909104019093A9018093A8018091010128
:1006100090910201BBCFFB01D9012D913D91213079
:10062000310551F02230310559F0232B41F48095EA
:1006300090818923808308959081982B90830895D9
:10064000982F909520819223DA012C918223F5CF67
:10065000CF93DF930E94A102809193019091940126
:100660008130910521F1029729F124EA31E041E935
:1006700051E0BE0180E20E940B0326EA31E041E92D
:1006800051E0BE0180E10E940B0328EA31E041E91C
:1006900051E0BE0188E00E940B032AEA31E041E903
:1006A00051E0BE0184E0DF91CF910C940B03CDE8C3
:1006B000D1E0DBCFCEE8D1E0D8CF8091C801823045
:1006C000C1F040F481110BC080918C018F71809337
:1006D0008C0108958330A9F08430D9F00895809179
:1006E0008C018F71806880938C0180E88093AE01CB
:1006F000089580918C018F71806480938C0180E4D7
:10070000F5CF80918C018F71806280938C0180E2A3
:10071000EDCF80918C01806E80938C0180EEE6CFCE
:1007200080919201811559F090918C0180919001F6
:100730002091AE0182239F71892B80938C010895B3
:100740008091A1019091A201892BF1F02091A30148
:1007500030E0C901019622303105A1F184309105C4
:10076000A4F48130910521F580939F019093A0011D
:1007700010929D0110929E0110929B0110929C017B
:100780001092990110929A010895F1F710929F0129
:100790001092A00110929D0110929E0110929B0157
:1007A00010929C0181E08093990110929A01089522
:1007B00010929F011092A00181E080939D01109200
:1007C0009E01DACF10929F011092A00110929D011C
:1007D00010929E0181E080939B0110929C01D0CFEA
:1007E000809192018115E1F08091C8018230C9F0B9
:1007F00060F481110FC081E090E09093A20180939A
:10080000A1010E94A1020C94A003833069F08430FE
:1008100071F0089587E091E08093AC019093AD0171
:10082000089585E091E0F8CF83E091E0F5CF81E095
:1008300091E0F2CF209100012330B9F02091000126
:10084000211559F020910001213081F02091000103
:10085000223029F482E090E002C080E090E0E09154
:10086000AC01F091AD0180839183089581E090E027
:10087000F6CF80919301909194018130910559F0C8
:10088000029791F41092A2011092A10183E080934B
:1008900000010C9428030E945D030E9490030E94B3
:1008A000F0030E941A04F5CF089564E471E00E94F9
:1008B00013068093B1019093B20164E471E080E08B
:1008C00090E00E9413068093AF019093B0010895C9
:1008D0000F931F93CF93DF930E9455040091B101B2
:1008E0001091B2016BE571E0C8010E941806892BD6
:1008F00011F163E671E0C8010E941806892BF1F03E
:100900006AE671E0C8010E941806892BD1F00091B7
:10091000AF011091B00161E771E0C8010E941806B3
:10092000892B91F4D0931001C0930F01DF91CF91E7
:100930001F910F910895C0E0D0E0E9CFC2E0D0E070
:10094000E6CFC1E0D0E0E3CF65E771E0C8010E94E7
:100950001806892B29F4D0930E01C0930D01E6CF20
:100960006BE771E0C8010E941806892B29F4D09327
:100970000C01C0930B01DACF60E871E0C8010E945E
:100980001806892B99F6D0930A01C0930901CECF9E
:100990009B01AC0160E472E48FE090E00E94CF051F
:1009A000215031093093C5002093C40088E9809319
:1009B000C10086E08093C20008959091C00095FF29
:1009C000FCCF8093C6000895CF93DF93EC0188811C
:1009D000811103C0DF91CF91089521960E94DD041B
:1009E000F6CFCF93DF9300D000D000D0CDB7DEB7E5
:1009F0004AE0BE016F5F7F4F0E944806CE0101961C
:100A00000E94E4040F900F900F900F900F900F90A2
:100A1000DF91CF9108951F920F920FB60F9211247C
:100A20002F933F934F935F936F937F938F939F93F6
:100A3000AF93BF93EF93FF9382E090E09093940184
:100A4000809393018091C6008A3099F18D3089F1AD
:100A50009091B3019331E0F4E091B301F0E0EC54F4
:100A6000FE4F80838091B3018F5F8093B301FF912C
:100A7000EF91BF91AF919F918F917F916F915F9116
:100A80004F913F912F910F900FBE0F901F9018958F
:100A90001092C8011092B30184EB91E00E94E4042B
:100AA0008BE291E00E94E40484EB91E00E946804F0
:100AB000DECFE091B301F0E0EC54FE4F1082EACFBC
:100AC0008AB1837E8AB98BB18C618BB9E9E6F0E09B
:100AD00080818260808380818E7F8083E89A089500
:100AE0000F920FB60F921F9211245F936F937F9313
:100AF0008F939F93AF93BF9381E090E09093940185
:100B00008093930180919201811110C099B189B1B4
:100B100092FD0CC083FF16C08091C80190E0019641
:100B200065E070E00E94BB058093C801BF91AF9162
:100B30009F918F917F916F915F911F900F900FBE4A
:100B40000F9018958091C801811521F08091C801FE
:100B50008150EACF84E0E8CFA29FB001B39FC001EB
:100B6000A39F700D811D1124911DB29F700D811DD9
:100B70001124911D089597FB072E16F4009407D0B9
:100B800077FD09D00E94FF0507FC05D03EF4909543
:100B900081959F4F0895709561957F4F0895A1E2CB
:100BA0001A2EAA1BBB1BFD010DC0AA1FBB1FEE1FE7
:100BB000FF1FA217B307E407F50720F0A21BB30B32
:100BC000E40BF50B661F771F881F991F1A9469F7AE
:100BD00060957095809590959B01AC01BD01CF010A
:100BE0000895AA2781110C94F905A8E0892BD9F75B
:100BF0000895A3958695E8F78A2F99270895AA1B4B
:100C0000BB1B51E107C0AA1FBB1FA617B70710F0F7
:100C1000A61BB70B881F991F5A95A9F78095909529
:100C2000BC01CD01089546E851E00E9421060895D7
:100C3000FB01DC018D91019080190110D9F3990B12
:100C40000895FA01A191B081009719F41097E1F08D
:100C5000CD01DC01CD010D90002011F4C00113C0C5
:100C6000FB012191222319F02015D9F7F3CFFB01C5
:100C70002191201519F41E92119606C02223C1F766
:100C80000D900020A1F7D001FA01A193B08308953F
:100C9000BB274A3031F4992322F4BDE29095819527
:100CA0009F4F0C945406BB27FB015527AA27880F9A
:100CB000991FAA1FA41710F0A41B83955051B9F7D0
:100CC000A05DAA3308F0A95DA193009779F7B1114F
:100CD000B1931192CB010C946D06DC01FC01672FDE
:100CE00071917723E1F7329704C07C916D93708303
:0E0CF0006291AE17BF07C8F30895F894FFCFC6
:100CFE0003020002000200020002000200020002D3
:100D0E0000726F746F7220737769746368206973F1
:100D1E0020707265737365643A20000D0A00627468
:100D2E006E206F6E2F6F666620697320707265730A
:100D3E007365643A200062746E2072657365742068
:100D4E0069732070726573736564006469736162A0
:100D5E006C6500656E61626C6500746F67676C65CB
:100D6E000072656400677265656E00626C75650081
:060D7E007768697465004E
:00000001FF
